:100000000C942A000C9447000C9447000C94470071
:100010000C9447000C9447000C9447000C949D0DE1
:100020000C9447000C9447000C9447000C94470034
:100030000C9447000C9447000C9447000C94470024
:100040000C9447000C9447000C9447000C94470014
:100050000C94470011241FBECFE5D8E0DEBFCDBF12
:1000600010E0A0E6B0E0EEE9FCE402C005900D92DD
:10007000A63CB107D9F713E0A6ECB0E001C01D9291
:10008000A034B107E1F70E9478200C944D260C941F
:100090000000EF92FF920F931F937B018C0120E0F1
:1000A00030E040E05FE40E94F50388238CF0C80153
:1000B000B70120E030E040E05FE40E94C1010E940F
:1000C00055049B01AC01205030404040504806C0D0
:1000D000C801B7010E9455049B01AC01B901CA01D6
:1000E0001F910F91FF90EF900895A0E0B0E0EBE733
:1000F000F0E00C94EE25DC012B01FA019C9192308A
:1001000008F439C1EB018881823008F433C194309E
:1001100069F4843009F02FC111969C91119789815F
:10012000981709F428C1ABEAB0E025C1843009F47E
:1001300021C18230A9F4923009F01DC19A01AD01AC
:1001400088E0EA010990AE01E90109929E0181501F
:10015000C1F7E201898111969C918923818308C1AD
:10016000923009F407C112962D903C901397EB0141
:100170008A819B811496AD90BD90CD90DC901797AD
:10018000EC80FD800E811F819101281B390BB90184
:1001900037FF04C066277727621B730B6032710537
:1001A0000CF061C0121613066CF537014801062EDB
:1001B00004C096948794779467940A94D2F721E0C8
:1001C00030E040E050E004C0220F331F441F551FB1
:1001D0006A95D2F721503040404050402E213F21B7
:1001E00040235123211531054105510521F021E01E
:1001F00030E040E050E079018A01E628F72808293C
:1002000019293CC0232BD1F1260E371E350146019A
:10021000062E04C096948794779467940A94D2F734
:1002200021E030E040E050E004C0220F331F441FC3
:10023000551F6A95D2F721503040404050402A2146
:100240003B214C215D21211531054105510521F04E
:1002500021E030E040E050E059016A01A628B728CB
:10026000C828D9280BC0821593052CF01C01AA249C
:10027000BB24650103C0EE24FF24870111969C91E5
:10028000D20111968C91981709F445C0992339F041
:10029000A80197012A193B094C095D0906C0A6016E
:1002A00095012E193F09400B510B57FD08C01182D3
:1002B0003382228224833583468357831DC081E0A5
:1002C00081833382228288279927DC01821B930B4A
:1002D000A40BB50B84839583A683B7830DC0220F2F
:1002E000331F441F551F24833583468357838281E0
:1002F000938101979383828324813581468157813D
:10030000DA01C9010197A109B1098F5F9F4FAF4F72
:10031000BF4328F30BC0918333822282EA0CFB1C7B
:100320000C1D1D1DE482F5820683178383E0808304
:10033000248135814681578157FF1AC0C901AA27F8
:1003400097FDA095BA2F81709070A070B0705695EF
:10035000479537952795822B932BA42BB52B848318
:100360009583A683B7838281938101969383828349
:10037000DF0101C0D201CD01CDB7DEB7E2E10C94BF
:100380000A26A0E2B0E0E7ECF1E00C94FA256983DC
:100390007A838B839C832D833E834F835887E9E048
:1003A000EE2EF12CEC0EFD1ECE010196B7010E943F
:1003B0007E058E010F5E1F4FCE010596B8010E948B
:1003C0007E058A8991E089278A8BC701B801AE0131
:1003D000475E5F4F0E9475000E94A904A096E6E068
:1003E0000C941626A0E2B0E0E8EFF1E00C94FA25B8
:1003F00069837A838B839C832D833E834F835887C5
:10040000F9E0EF2EF12CEC0EFD1ECE010196B701A6
:100410000E947E058E010F5E1F4FCE010596B8012A
:100420000E947E05C701B801AE01475E5F4F0E9482
:1004300075000E94A904A096E6E00C941626A0E29E
:10044000B0E0E5E2F2E00C94EE2569837A838B83D9
:100450009C832D833E834F835887CE010196BE0136
:10046000675F7F4F0E947E05CE010596BE016F5EDD
:100470007F4F0E947E059985923088F0898982306D
:10048000C8F0943019F4823051F404C0843029F457
:10049000923081F48BEA90E0C6C0923049F420E0BB
:1004A0009A858A89981321E02A87CE010996BBC0D4
:1004B000823049F420E09A858A89981321E02A8BBA
:1004C000CE014196B0C02D843E844F8458886D88FB
:1004D0007E888F88988CEE24FF248701AA24BB2471
:1004E000650140E050E060E070E0E0E0F0E0C10174
:1004F00081709070892BE9F0E60CF71C081D191D1E
:100500009A01AB012A0D3B1D4C1D5D1D80E090E062
:10051000A0E0B0E0E614F7040805190520F481E036
:1005200090E0A0E0B0E0BA01A901480F591F6A1F8E
:100530007B1FAA0CBB1CCC1CDD1C97FE08C081E0F5
:1005400090E0A0E0B0E0A82AB92ACA2ADB2A3196B6
:10055000E032F10549F0660C771C881C991C569412
:10056000479437942794C3CFFA85EA892B893C892D
:100570008B859C85280F391F2E5F3F4F17C0CA01FE
:1005800081709070892B61F016950795F794E79428
:1005900080E090E0A0E0B0E8E82AF92A0A2B1B2BC3
:1005A00076956795579547952F5F3F4F77FDE7CF36
:1005B0000CC0440F551F661F771F17FD4160EE0CDE
:1005C000FF1C001F111F21503040403090E05907A0
:1005D00090E0690790E4790760F32B8F3C8FDB0193
:1005E000CA018F779070A070B07080349105A1051A
:1005F000B10561F447FD0AC0E114F10401051105DC
:1006000029F0405C5F4F6F4F7F4F40781A8EFE1786
:1006100011F081E08A8F4D8F5E8F6F8F78A383E01A
:10062000898FCE0149960E94A904A096E2E10C941C
:100630000A26A8E1B0E0EFE1F3E00C94F625698327
:100640007A838B839C832D833E834F835887B9E0C5
:10065000EB2EF12CEC0EFD1ECE010196B7010E948F
:100660007E058E010F5E1F4FCE010596B8010E94D8
:100670007E052985223008F47EC03989323010F495
:10068000B8017CC08A859A8989278A87243011F02D
:10069000223031F4231709F06EC06BEA70E06EC0AF
:1006A000343039F41D861E861F86188A1C861B86E8
:1006B00004C0323021F484E08987B7015FC02B8504
:1006C0003C858B899C89281B390B3C872B87ED84C3
:1006D000FE840F851889AD88BE88CF88D88CEA142F
:1006E000FB040C051D0540F4EE0CFF1C001F111F40
:1006F000215030403C872B8720E030E040E050E044
:1007000080E090E0A0E0B0E460E070E0EA14FB0478
:100710000C051D0540F0282B392B4A2B5B2BEA18C2
:10072000FB080C091D09B695A79597958795EE0CC2
:10073000FF1C001F111F6F5F7F4F6F31710531F775
:10074000DA01C9018F779070A070B0708034910584
:10075000A105B10561F427FD0AC0E114F10401050A
:10076000110529F0205C3F4F4F4F5F4F20782D87B8
:100770003E874F87588BBE01675F7F4FCB010E943A
:10078000A9046896EAE00C941226A8E1B0E0EBEC2C
:10079000F3E00C94FA2569837A838B839C832D8301
:1007A0003E834F83588789E0E82EF12CEC0EFD1E26
:1007B000CE010196B7010E947E058E010F5E1F4F8C
:1007C000CE010596B8010E947E058985823040F0F1
:1007D0008989823028F0C701B8010E94F60501C05E
:1007E0008FEF6896E6E00C941626A8E1B0E0EBEFF8
:1007F000F3E00C94FA2569837A838B839C832D83A1
:100800003E834F83588789E0E82EF12CEC0EFD1EC5
:10081000CE010196B7010E947E058E010F5E1F4F2B
:10082000CE010596B8010E947E058985823040F090
:100830008989823028F0C701B8010E94F60501C0FD
:100840008FEF6896E6E00C941626A8E1B0E0EBE2A4
:10085000F4E00C94FA2569837A838B839C832D833F
:100860003E834F83588789E0E82EF12CEC0EFD1E65
:10087000CE010196B7010E947E058E010F5E1F4FCB
:10088000CE010596B8010E947E058985823040F030
:100890008989823028F0C701B8010E94F60501C09D
:1008A00081E06896E6E00C941626ACE0B0E0EBE55B
:1008B000F4E00C94FE2569837A838B839C83CE01BC
:1008C0000196BE016B5F7F4F0E947E058D81823055
:1008D00061F1823050F1843021F48E81882351F10E
:1008E0002EC02F81388537FD20C06E812F31310514
:1008F0001CF06623F9F023C08EE190E0821B930B7D
:1009000029853A854B855C8504C056954795379572
:1009100027958A95D2F76623B1F05095409530958A
:1009200021953F4F4F4F5F4F0EC020E030E040E039
:1009300050E009C02FEF3FEF4FEF5FE704C020E02A
:1009400030E040E050E8B901CA012C96E2E00C9496
:100950001A26DF92EF92FF920F931F93FC01E4801F
:10096000F58006811781D1808081823048F480E053
:1009700090E0A0E1B0E0E82AF92A0A2B1B2BA5C0E1
:10098000843009F49FC0823021F4EE24FF248701D3
:1009900005C0E114F1040105110519F4E0E0F0E0EF
:1009A00096C0628173819FEF623879070CF05BC05B
:1009B00022E83FEF261B370B2A3131052CF020E0CF
:1009C00030E040E050E02AC0B801A701022E04C088
:1009D00076956795579547950A94D2F781E090E010
:1009E000A0E0B0E004C0880F991FAA1FBB1F2A9582
:1009F000D2F70197A109B1098E219F21A023B1232C
:100A00000097A105B10521F081E090E0A0E0B0E001
:100A10009A01AB01282B392B4A2B5B2BDA01C90138
:100A20008F779070A070B07080349105A105B105EA
:100A300039F427FF09C0205C3F4F4F4F5F4F04C080
:100A4000215C3F4F4F4F5F4FE0E0F0E02030A0E0EF
:100A50003A07A0E04A07A0E45A0710F0E1E0F0E00E
:100A600079018A0127C06038710564F5FB01E158FE
:100A7000FF4FD801C7018F779070A070B07080349D
:100A80009105A105B10539F4E7FE0DC080E490E0C1
:100A9000A0E0B0E004C08FE390E0A0E0B0E0E80E9A
:100AA000F91E0A1F1B1F17FF05C016950795F7941F
:100AB000E794319687E016950795F794E7948A9521
:100AC000D1F705C0EE24FF248701EFEFF0E06E2F91
:100AD000679566276795902F9F77D794DD24D794E5
:100AE0008E2F8695492F462B582F5D29B701CA01B5
:100AF0001F910F91FF90EF90DF900895FC01DB01B3
:100B0000408151812281622F6F7770E0221F22275E
:100B1000221F9381892F880F822B282F30E0991F65
:100B20009927991F11969C93119721153105A9F5C5
:100B3000411551056105710511F482E037C082E865
:100B40009FEF13969C938E9312979A01AB0167E0E7
:100B5000220F331F441F551F6A95D1F783E08C93F2
:100B60000DC0220F331F441F551F12968D919C916B
:100B70001397019713969C938E931297203080E0E1
:100B8000380780E0480780E4580758F314962D93FF
:100B90003D934D935C93179708952F3F310579F45A
:100BA000411551056105710519F484E08C93089590
:100BB00064FF03C081E08C9312C01C9210C02F57B9
:100BC000304013963C932E93129783E08C9387E0EA
:100BD000440F551F661F771F8A95D1F770641496CE
:100BE0004D935D936D937C93179708951F93DC014C
:100BF000FB019C91923008F447C08081823008F458
:100C000043C0943051F411961C91843099F5818140
:100C1000682F70E0611B71093FC0843021F0923071
:100C200031F48230B9F18181882389F12DC0119688
:100C30001C9111978230F1F081811817D9F4129626
:100C40002D913C911397828193818217930794F0A1
:100C500028173907BCF014968D919D910D90BC9189
:100C6000A02D2481358146815781281739074A07ED
:100C70005B0718F4112341F00AC082179307A407F9
:100C8000B50740F4112319F061E070E005C06FEF83
:100C90007FEF02C060E070E0CB011F910895DF9309
:100CA000CF93CDB7DEB727970FB6F894DEBF0FBE50
:100CB000CDBF9D838C836E834F838AE190E00E9439
:100CC00027099A83898389819A81009709F46FC0E3
:100CD0008091C6009091C700009741F489819A8164
:100CE0009093C7008093C6000E94B6088E81823020
:100CF00010F081E08E83E981FA81118E108EE981F6
:100D0000FA818E81868BE981FA818F81878BE981D7
:100D1000FA818C819D819183808389819A81029659
:100D20000E94BD0989819A810C960E94BD09E981C2
:100D3000FA8189819A8191878087E981FA81898105
:100D40009A81938B828B8E81282F30E082E090E015
:100D5000821B930BE981FA8195878487E981FA8167
:100D600096898091C800891728F4E981FA818689DB
:100D70008093C800E981FA818689282F30E0C90173
:100D8000880F991F880F991F880F991F820F931F33
:100D9000AC0141535F4F89819A819C012E5F3F4F87
:100DA000CA01B9010E94CD0981E08B8302C08FEF97
:100DB0008B838B8127960FB6F894DEBF0FBECDBF15
:100DC000CF91DF910895DF93CF9300D000D000D072
:100DD000CDB7DEB79C838B837E836D832091C90062
:100DE0003091CA008B819C81820F931F9A838983E3
:100DF0008091C6009091C70002960E94850AE091FA
:100E0000C600F091C70089819A81938382832091E3
:100E1000C9003091CA0089819A818217930770F4C2
:100E20008091F5009091F6002091C6003091C700A6
:100E30002E5F3F4FB9010E94190A0DC08091F30047
:100E40009091F4002091C6003091C7002E5F3F4F73
:100E5000B9010E94190A8D819E81009761F08091ED
:100E6000C6009091C7009C01245F3F4F8D819E81F9
:100E7000B9010E94190A26960FB6F894DEBF0FBE7C
:100E8000CDBFCF91DF910895DF93CF9300D0CDB741
:100E9000DEB73AC0F894E091FC00F091FD00868145
:100EA00097819A83898389819A810C960E94850A09
:100EB000789489819A8102960E94850AE981FA8153
:100EC00096898091C800891728F4E981FA8186897A
:100ED0008093C800E981FA818689282F30E0C90112
:100EE000880F991F880F991F880F991F820F931FD2
:100EF000AC0141535F4F89819A819C012E5F3F4F26
:100F0000CA01B9010E94CD098091F700882309F038
:100F1000C1CF0F900F90CF91DF910895DF93CF93C2
:100F200000D000D0CDB7DEB70E94F3142091CB00E3
:100F30003091CC00821B930B9093CE008093CD0018
:100F400085C08091C9009091CA0001969093CA0013
:100F50008093C9008091CD009091CE00019790932D
:100F6000CE008093CD008091C9009091CA00009777
:100F700009F064C08091F3009091F4009A83898312
:100F80008091F5009091F6009093F4008093F30027
:100F900089819A819093F6008093F5004FC0E0918B
:100FA000F300F091F4000580F681E02D86819781B1
:100FB0009C838B83EB81FC81228133818091C900EA
:100FC0009091CA008217930708F440C0F8948B816F
:100FD0009C8102960E94850AEB81FC818489958917
:100FE000009729F08B819C810C960E94850A789449
:100FF000EB81FC8196898091C800891728F4EB81E8
:10100000FC8186898093C800EB81FC818689282F2A
:1010100030E0C901880F991F880F991F880F991F09
:10102000820F931FAC0141535F4F8B819C819C01C8
:101030002E5F3F4FCA01B9010E94CD09E091F30034
:10104000F091F4008081882309F0A9CF8091CD0030
:101050009091CE00009709F074CF8091C9009091D3
:10106000CA009093CC008093CB000F900F900F900C
:101070000F90CF91DF910895DF93CF9300D0CDB73C
:10108000DEB70E9444070E948E070AC08091C80004
:10109000882309F466C08091C80081508093C800FD
:1010A0008091C800282F30E0C901880F991F880F50
:1010B000991F880F991F820F931FFC01E153FF4F67
:1010C0008081882319F38091C800282F30E0C9015E
:1010D000880F991F880F991F880F991F820F931FE0
:1010E00081539F4F9A838983E981FA810180F2813C
:1010F000E02D82819381E981FA8192838183E98164
:10110000FA812181328189819A81039628173907D2
:1011100059F4E981FA810180F281E02D8281938185
:10112000E981FA8192838183E981FA810180F281E8
:10113000E02D868197819093C7008093C600E0914F
:10114000C600F091C700408151818091C600909106
:10115000C700E091C600F091C7002789622FFA010D
:1011600009950F900F90CF91DF910895DF93CF9362
:101170000F92CDB7DEB7198213C08981282F30E0D6
:10118000C901880F991F880F991F880F991F820F17
:10119000931F81539F4F0E94930989818F5F898399
:1011A0008981823050F381EE90E00E9493098AEEAB
:1011B00090E00E94930987EF90E00E94930981EEEE
:1011C00090E09093F4008093F3008AEE90E0909387
:1011D000F6008093F5000F90CF91DF910895DF9393
:1011E000CF9300D000D00F92CDB7DEB79D838C8314
:1011F000EC81FD810580F681E02D868197819B83BE
:101200008A838A819B810C960E94850A8A819B81B0
:101210009C01245F3F4F87EF90E0B9010E94CD0908
:10122000EA81FB819689E091C600F091C70086892A
:10123000981718F081E0898301C0198289810F9085
:101240000F900F900F900F90CF91DF910895DF9343
:10125000CF9300D000D0CDB7DEB79C838B831A82AA
:1012600019820E945D1480910001909101012B81EF
:101270003C81820F931F21E0843F920718F5209153
:101280000001309101018B819C81280F391F8091D1
:1012900000019091010182179307A0F48091000151
:1012A000909101018E5F9E4F9A8389832091000166
:1012B000309101018B819C81820F931F90930101DA
:1012C000809300010E94691489819A810F900F9088
:1012D0000F900F90CF91DF910895DF93CF9300D0BF
:1012E000CDB7DEB79A8389830F900F90CF91DF91AE
:1012F0000895DF93CF93CDB7DEB71092010110921E
:101300000001CF91DF910895DF93CF93CDB7DEB782
:10131000209100013091010184EF91E0821B930B39
:10132000CF91DF910895DF93CF9300D0CDB7DEB793
:101330009A83898389819A810396E981FA819283CC
:101340008183E981FA818FEF9FEF94838383898181
:101350009A810396E981FA819683858389819A81AE
:101360000396E981FA8190878783E981FA81108267
:101370000F900F90CF91DF910895DF93CF9300D01E
:10138000CDB7DEB79A838983E981FA811186108609
:101390000F900F90CF91DF910895DF93CF9300D0FE
:1013A00000D000D0CDB7DEB79C838B837E836D8366
:1013B000EB81FC81818192819A838983E981FA8121
:1013C00082819381ED81FE8193838283EB81FC8115
:1013D00081819281ED81FE8195838483E981FA8107
:1013E0000280F381E02D8D819E81958384838D81A0
:1013F0009E81E981FA81938382838D819E81EB8135
:10140000FC8192838183ED81FE818B819C81918718
:101410008087EB81FC8180818F5FEB81FC81808301
:1014200026960FB6F894DEBF0FBECDBFCF91DF91E9
:101430000895DF93CF93CDB7DEB728970FB6F89412
:10144000DEBF0FBECDBF9E838D8378876F83EF8114
:10145000F885808191819A83898389819A812FEF90
:101460008F3F920739F4ED81FE81878190859C83BF
:101470008B8318C08D819E8103969C838B8306C0CD
:10148000EB81FC81828193819C838B83EB81FC8146
:101490000280F381E02D2081318189819A81821738
:1014A000930770F7EB81FC8182819381EF81F8854E
:1014B00093838283EF81F8850280F381E02D8F8111
:1014C000988595838483EF81F8858B819C819583B2
:1014D00084838F819885EB81FC8193838283EF8164
:1014E000F8858D819E8191878087ED81FE81808145
:1014F0008F5FED81FE81808328960FB6F894DEBF62
:101500000FBECDBFCF91DF910895DF93CF9300D071
:1015100000D0CDB7DEB79C838B83EB81FC81A281A9
:10152000B381EB81FC818481958115969C938E9388
:101530001497EB81FC81A481B581EB81FC818281D0
:10154000938113969C938E931297EB81FC818085F7
:1015500091859A838983E981FA81218132818B8106
:101560009C812817390741F4EB81FC8184819581A6
:10157000E981FA8192838183EB81FC811186108657
:10158000E981FA8180818150E981FA8180830F901D
:101590000F900F900F90CF91DF910895DF93CF932D
:1015A000CDB7DEB728970FB6F894DEBF0FBECDBF1C
:1015B0009C838B837E836D8358874F83EB81FC8173
:1015C00081E180838B819C8101979C838B83EB815C
:1015D000FC8182E280838B819C8101979C838B8339
:1015E000EB81FC8183E380838B819C8101979C83C9
:1015F0008B838D819E819A8389838981EB81FC8194
:1016000080838B819C8101979C838B8389819A81C4
:10161000892F99279A8389838981EB81FC81808333
:101620008B819C8101979C838B83EB81FC81108251
:101630008B819C8101979C838B83EB81FC8180E86B
:1016400080838B819C8101979C838B83EB81FC81C0
:1016500010828B819C8101979C838B83EB81FC8121
:1016600082E080838B819C8101979C838B83EB81BB
:10167000FC8183E080838B819C8101979C838B8399
:10168000EB81FC8184E080838B819C8101979C832A
:101690008B83EB81FC8185E080838B819C8101972A
:1016A0009C838B83EB81FC8186E080838B819C8192
:1016B00001979C838B83EB81FC8187E080838B8106
:1016C0009C8101979C838B83EB81FC8188E08083E4
:1016D0008B819C8101979C838B83EB81FC8189E0CA
:1016E00080838B819C8101979C838B83EB81FC8120
:1016F00080E180838B819C8101979C838B83EB812C
:10170000FC8181E180838B819C8101979C838B8309
:10171000EB81FC8182E180838B819C8101979C839A
:101720008B83EB81FC8183E180838B819C8101979A
:101730009C838B83EB81FC8184E180838B819C8102
:1017400001979C838B83EB81FC8185E180838B8176
:101750009C8101979C838B83EB81FC8186E1808354
:101760008B819C8101979C838B83EB81FC8187E13A
:1017700080838B819C8101979C838B83EB81FC818F
:1017800088E180838B819C8101979C838B83EB8193
:10179000FC8189E180838B819C8101979C838B8371
:1017A000EB81FC8180E280838B819C8101979C830B
:1017B0008B83EB81FC8181E280838B819C8101970B
:1017C0009C838B83EB81FC8182E280838B819C8173
:1017D00001979C838B83EB81FC8183E280838B81E7
:1017E0009C8101979C838B838F8198859A838983C1
:1017F0008981EB81FC8180838B819C8101979C8313
:101800008B8389819A81892F99279A8389838981FA
:10181000EB81FC8180838B819C8101979C838B83EE
:10182000EB81FC8186E280838B819C8101979C8384
:101830008B83EB81FC8187E280838B819C81019784
:101840009C838B83EB81FC8188E280838B819C81EC
:1018500001979C838B83EB81FC8189E280838B8160
:101860009C8101979C838B83EB81FC8180E3808347
:101870008B819C8101979C838B83EB81FC8181E32D
:1018800080838B819C8101979C838B838B819C813E
:1018900028960FB6F894DEBF0FBECDBFCF91DF9173
:1018A0000895DF93CF93CDB7DEB70E94410DA0918D
:1018B000F602B091F702CD91CDBFDD91DEBFFF9171
:1018C000EF91DF91CF91BF91AF919F918F917F91D8
:1018D0006F915F914F913F912F911F910F91FF90C9
:1018E000EF90DF90CF90BF90AF909F908F907F90C0
:1018F0006F905F904F903F902F901F900F900FBE72
:101900000F90089581E0CF91DF910895DF93CF93F9
:10191000CDB7DEB7CF91DF9108950F920FB6F8944F
:101920000F921F9211242F923F924F925F926F92CB
:101930007F928F929F92AF92BF92CF92DF92EF925F
:10194000FF920F931F932F933F934F935F936F9348
:101950007F938F939F93AF93BF93CF93DF93EF9337
:10196000FF93A091F602B091F7020DB60D920EB65C
:101970000D920E94FD15A091F602B091F702CD9153
:10198000CDBFDD91DEBFFF91EF91DF91CF91BF9190
:10199000AF919F918F917F916F915F914F913F9107
:1019A0002F911F910F91FF90EF90DF90CF90BF90FC
:1019B000AF909F908F907F906F905F904F903F90EF
:1019C0002F901F900F900FBE0F9008950F920FB69B
:1019D000F8940F921F9211242F923F924F925F9290
:1019E0006F927F928F929F92AF92BF92CF92DF922F
:1019F000EF92FF920F931F932F933F934F935F9319
:101A00006F937F938F939F93AF93BF93CF93DF9306
:101A1000EF93FF93A091F602B091F7020DB60D92ED
:101A20000EB60D920E9428150E94FD15A091F60297
:101A3000B091F702CD91CDBFDD91DEBFFF91EF9167
:101A4000DF91CF91BF91AF919F918F917F916F91D6
:101A50005F914F913F912F911F910F91FF90EF90C8
:101A6000DF90CF90BF90AF909F908F907F906F90BE
:101A70005F904F903F902F901F900F900FBE0F9050
:101A80000895DF93CF9300D000D000D0CDB7DEB75C
:101A900080E49FE1A0E0B0E08B839C83AD83BE83B4
:101AA0008B819C81AD81BE81689415F8B695A79510
:101AB000979587951694D1F78B839C83AD83BE83CE
:101AC0008B819C81AD81BE810197A109B1098B8376
:101AD0009C83AD83BE838B8189838B819C81AD8107
:101AE000BE81892F9A2FAB2FBB278B839C83AD831D
:101AF000BE838B818A83EBE4F0E08A818083EAE411
:101B0000F0E0898180838BE08983EEE4F0E08981D5
:101B10008083E9E5F0E08081898389818061898320
:101B2000E9E5F0E08981808326960FB6F894DEBF60
:101B30000FBECDBFCF91DF9108950E94E60C18959E
:101B4000DF93CF93CDB7DEB728970FB6F894DEBFFB
:101B50000FBECDBF8F8368871A8219828F81882339
:101B600009F48CC08FE190E00E9427099E838D8349
:101B70008D819E81009709F481C08F81282F30E0EC
:101B80008885882F90E0AC01249FC001259F900D8F
:101B9000349F900D112401969C838B838B819C81B3
:101BA0000E942709ED81FE8191838083ED81FE8172
:101BB00080819181009709F45DC0ED81FE814081B3
:101BC00051818F81282F30E08885882F90E0BC01DB
:101BD000269FC001279F900D369F900D1124840FE2
:101BE000951FED81FE8193838283ED81FE81128EAC
:101BF000ED81FE8180819181ED81FE8195838483D9
:101C0000ED81FE81408151818F81882F90E09C0180
:101C1000215030408885882F90E0BC01269FC0016C
:101C2000279F900D369F900D1124840F951FED81F5
:101C3000FE8197838683ED81FE818F81838FED8185
:101C4000FE818885848FED81FE818FEF858FED8108
:101C5000FE818FEF868F8D819E8108960E94930969
:101C60008D819E8141960E9493098D819E819A83E8
:101C7000898304C08D819E810E946D0989819A812A
:101C800028960FB6F894DEBF0FBECDBFCF91DF917F
:101C90000895DF93CF93CDB7DEB72C970FB6F894A6
:101CA000DEBF0FBECDBF9E838D8378876F835A873B
:101CB00049872B8719820FB6F8940F92ED81FE8128
:101CC000928DED81FE81838D9817D8F48D819E8150
:101CD0002F813885B9014B850E948410ED81FE81EA
:101CE0008189882349F08D819E8141960E949916B1
:101CF000813011F40E948D0C0F900FBE81E08C8713
:101D00005CC089859A85009721F40F900FBE1C86D0
:101D100054C08981882331F4CE0102960E940117B4
:101D200081E089830F900FBE0E945D140FB6F89476
:101D30000F92ED81FE81858D8F3F19F4ED81FE813B
:101D4000158EED81FE81868D8F3F19F4ED81FE8128
:101D5000168E0F900FBECE0102969E01275F3F4F59
:101D6000B9010E941A17882309F58D819E810E946E
:101D7000E8118823A1F08D819E81089629853A85F6
:101D8000B9010E9463168D819E810E9461110E949B
:101D90006914882309F08FCF0E948D0C8CCF8D8120
:101DA0009E810E9461110E94691485CF8D819E8160
:101DB0000E9461110E9469141C868C852C960FB6B6
:101DC000F894DEBF0FBECDBFCF91DF910895DF93B2
:101DD000CF93CDB7DEB729970FB6F894DEBF0FBE0D
:101DE000CDBF9C838B837E836D8358874F832987E8
:101DF0001982EB81FC81928DEB81FC81838D981798
:101E000040F58B819C812D813E81B90149850E94DD
:101E10008410EB81FC81868D8F3F89F4EB81FC81FE
:101E20008189882399F08B819C8141960E94991623
:101E3000882361F0EF81F88581E0808307C0EB8122
:101E4000FC81868D8F5FEB81FC81868F81E08A83A8
:101E500001C01A828A8129960FB6F894DEBF0FBEA0
:101E6000CDBFCF91DF910895DF93CF93CDB7DEB78C
:101E70002E970FB6F894DEBF0FBECDBF98878F8325
:101E80007A8769875C874B872D871B820FB6F8940A
:101E90000F92EF81F885828D882309F43FC0EF818E
:101EA000F885868197819A8389838F819885298592
:101EB0003A85B9010E9419118D858823B1F4EF810B
:101EC000F885828D8150EF81F885828FEF81F885CA
:101ED00080858823F1F08F81988508960E94991655
:101EE0008130B9F40E948D0C14C0EF81F88589818E
:101EF0009A8197838683EF81F8858189882349F0C9
:101F00008F81988541960E949916882311F00E942E
:101F10008D0C0F900FBE81E08E875CC08B859C85F9
:101F2000009721F40F900FBE1E8654C08B8188232A
:101F300031F4CE0104960E94011781E08B830F904B
:101F40000FBE0E945D140FB6F8940F92EF81F885D2
:101F5000858D8F3F19F4EF81F885158EEF81F88517
:101F6000868D8F3F19F4EF81F885168E0F900FBE86
:101F7000CE0104969E01255F3F4FB9010E941A17BA
:101F8000882309F58F8198850E94B5118823A1F0D7
:101F90008F81988541962B853C85B9010E946316F7
:101FA0008F8198850E9461110E946914882309F02D
:101FB0006DCF0E948D0C6ACF8F8198850E94611130
:101FC0000E94691463CF8F8198850E9461110E94DD
:101FD00069141E868E852E960FB6F894DEBF0FBE4E
:101FE000CDBFCF91DF910895DF93CF93CDB7DEB70B
:101FF00028970FB6F894DEBF0FBECDBF9C838B83AE
:102000007E836D8358874F831982EB81FC81828D9B
:10201000882371F18B819C812D813E81B9010E94C1
:102020001911EB81FC81828D8150EB81FC81828FC3
:10203000EB81FC81858D8F3F89F4EB81FC8180856C
:10204000882399F08B819C8108960E949916882399
:1020500061F0EF81F88581E0808307C0EB81FC812E
:10206000858D8F5FEB81FC81858F81E08A8301C044
:102070001A828A8128960FB6F894DEBF0FBECDBFB4
:10208000CF91DF910895DF93CF9300D00F92CDB71A
:10209000DEB79B838A830FB6F8940F92EA81FB81A7
:1020A000828D89830F900FBE89810F900F900F90C2
:1020B000CF91DF910895DF93CF9300D00F92CDB7EA
:1020C000DEB79B838A83EA81FB81828D8983898144
:1020D0000F900F900F90CF91DF910895DF93CF93E2
:1020E00000D0CDB7DEB79A838983E981FA818081F8
:1020F00091810E946D0989819A810E946D090F90DA
:102100000F90CF91DF910895DF93CF9300D000D04F
:102110000F92CDB7DEB79A8389837C836B834D831F
:10212000E981FA81848D882309F474C08D81882324
:1021300099F5E981FA8164817581E981FA81848D5B
:10214000482F50E02B813C81CB01B9010E9425260C
:10215000E981FA8124813581E981FA81848D882F92
:1021600090E0820F931FE981FA8195838483E9814E
:10217000FA8124813581E981FA818281938128174E
:10218000390708F447C0E981FA8180819181E981AA
:10219000FA81958384833EC0E981FA8166817781E3
:1021A000E981FA81848D482F50E02B813C81CB015D
:1021B000B9010E942526E981FA8126813781E981CA
:1021C000FA81848D882F90E0909581959F4F820FA2
:1021D000931FE981FA8197838683E981FA812681B9
:1021E0003781E981FA81808191812817390790F43C
:1021F000E981FA8122813381E981FA81848D882FF6
:1022000090E0909581959F4F820F931FE981FA810D
:1022100097838683E981FA81828D8F5FE981FA81D4
:10222000828F0F900F900F900F900F90CF91DF91B2
:102230000895DF93CF9300D000D0CDB7DEB79A8357
:1022400089837C836B83E981FA8180819181009706
:1022500089F1E981FA8126813781E981FA81848DCA
:10226000882F90E0820F931FE981FA8197838683FC
:10227000E981FA8126813781E981FA81828193811E
:102280002817390740F0E981FA8180819181E9813D
:10229000FA8197838683E981FA8146815781E981B2
:1022A000FA81848D282F30E08B819C81BA01A901AD
:1022B0000E9425260F900F900F900F90CF91DF91E5
:1022C0000895DF93CF9300D0CDB7DEB79A8389838B
:1022D0000FB6F8940F9215C0E981FA81818988239D
:1022E000A9F089819A8141960E949916882311F05C
:1022F0000E947717E981FA81868D8150E981FA8100
:10230000868FE981FA81868D181634F3E981FA8186
:102310008FEF868F0F900FBE0FB6F8940F9215C0F7
:10232000E981FA8180858823A9F089819A810896BC
:102330000E949916882311F00E947717E981FA818B
:10234000858D8150E981FA81858FE981FA81858DBA
:10235000181634F3E981FA818FEF858F0F900FBE45
:102360000F900F90CF91DF910895DF93CF9300D01E
:102370000F92CDB7DEB79B838A830FB6F8940F9286
:10238000EA81FB81828D1982882311F481E089839F
:102390000F900FBE89810F900F900F90CF91DF911A
:1023A0000895DF93CF9300D00F92CDB7DEB79B8314
:1023B0008A83EA81FB81828D1982882311F481E06E
:1023C000898389810F900F900F90CF91DF910895AD
:1023D000DF93CF9300D00F92CDB7DEB79B838A8374
:1023E0000FB6F8940F92EA81FB81928DEA81FB810E
:1023F000838D1982981711F481E089830F900FBEA5
:1024000089810F900F900F90CF91DF910895DF9306
:10241000CF9300D00F92CDB7DEB79B838A83EA813A
:10242000FB81928DEA81FB81838D1982981711F4CB
:1024300081E0898389810F900F900F90CF91DF9178
:102440000895AF92BF92CF92DF92EF92FF920F93D7
:102450001F93DF93CF93CDB7DEB764970FB6F89491
:10246000DEBF0FBECDBF9F838E83798768875B8772
:102470004A873D872C870E87F88AEF86DA8AC98AD1
:10248000BC8AAB8A8A859B8529893A89B9010E94D1
:10249000A6189C838B838B819C81009709F499C03B
:1024A000EB81FC812789308D8A859B850197820F7E
:1024B000931F9A8389838B819C8128853985EB8939
:1024C000FC89AA85BB85B9014E859F018D010E94BB
:1024D0008B1789819A812E813F814C855D85B90159
:1024E0000E94CE0AEB81FC81918380838F8598893D
:1024F000009731F0EF85F8898B819C8191838083EF
:102500000FB6F8940F928091F9028F5F8093F902D1
:102510008091F6029091F702009769F48B819C817B
:102520009093F7028093F6028091F9028130A9F42A
:102530000E94E21712C08091FE02882371F4E0919C
:10254000F602F091F70296898E85891730F08B811B
:102550009C819093F7028093F602EB81FC8196892F
:102560008091FC02891728F4EB81FC818689809395
:10257000FC02809103038F5F80930303EB81FC8156
:1025800096898091FD02891728F4EB81FC81868968
:102590008093FD02EB81FC818689282F30E0C90100
:1025A000880F991F880F991F880F991F820F931FFB
:1025B000AC014C5F5C4F8B819C819C012E5F3F4F37
:1025C000CA01B9010E94CD0981E08D830F900FBE31
:1025D00002C08FEF8D838D81813071F48091FE0276
:1025E000882351F0E091F602F091F70296898E85EA
:1025F000981710F40E948D0C8D8164960FB6F89494
:10260000DEBF0FBECDBFCF91DF911F910F91FF9025
:10261000EF90DF90CF90BF90AF900895DF93CF936E
:1026200000D000D000D0CDB7DEB79C838B830FB62F
:10263000F8940F922091F6023091F7028B819C81E1
:102640008217930711F41C821B828B819C81009757
:1026500039F48091F6029091F7029E838D8304C035
:102660008B819C819E838D838D819E819A838983BA
:1026700089819A8102960E94850AE981FA8184897A
:102680009589009729F089819A810C960E94850A84
:1026900089819A819C012E5F3F4F85E393E0B901C8
:1026A0000E94CD098091F8028F5F8093F80280919B
:1026B00003038F5F809303030F900FBE8091FE0290
:1026C000882331F08B819C81009711F40E948D0C3E
:1026D00026960FB6F894DEBF0FBECDBFCF91DF9127
:1026E0000895DF93CF93CDB7DEB728970FB6F89450
:1026F000DEBF0FBECDBF9E838D8378876F83198227
:102700000E945D14ED81FE81208131818F81988549
:10271000820F931F9C838B83ED81FE812081318109
:102720008091FA029091FB0282179307A8F4ED8141
:10273000FE81208131818B819C818217930700F576
:102740002091FA023091FB028B819C812817390776
:10275000B8F481E0898314C0ED81FE81208131814C
:102760008B819C818217930748F02091FA02309167
:10277000FB028B819C812817390710F481E0898343
:10278000ED81FE818B819C81918380838981882367
:1027900059F08091F6029091F70202960E94850A04
:1027A0008B819C810E945D180E9469148A838A81B2
:1027B000882311F40E948D0C28960FB6F894DEBF82
:1027C0000FBECDBFCF91DF910895DF93CF9300D09F
:1027D00000D00F92CDB7DEB79D838C8319828C8198
:1027E0009D810097D1F00E945D142091FA023091F2
:1027F000FB028C819D81820F931F9B838A83809132
:10280000F6029091F70202960E94850A8A819B81C6
:102810000E945D180E94691489838981882311F4BC
:102820000E948D0C0F900F900F900F900F90CF91F2
:10283000DF910895AF92BF92CF92DF92EF92FF9215
:102840000F93DF93CF930F92CDB7DEB720E630E042
:1028500081E897E1B90144E650E020E030E000E093
:10286000EE24FF24CC24DD24AA24BB240E942112C0
:1028700089838981813051F4F89481E08093FE024C
:102880001092FB021092FA020E94510C0F90CF910D
:10289000DF910F91FF90EF90DF90CF90BF90AF90BE
:1028A0000895DF93CF93CDB7DEB7F8941092FE0270
:1028B0000E94860CCF91DF910895DF93CF93CDB71F
:1028C000DEB78091FF028F5F8093FF02CF91DF918F
:1028D0000895DF93CF9300D000D0CDB7DEB71A8232
:1028E0000FB6F8940F928091FF0281508093FF02FF
:1028F0008091FF02882309F06CC08091F90288233F
:1029000009F467C0198241C0E0913103F0913203AC
:10291000868197819C838B838B819C810C960E94FE
:10292000850A8B819C8102960E94850AEB81FC813D
:1029300096898091FD02891728F4EB81FC818689B4
:102940008093FD02EB81FC818689282F30E0C9014C
:10295000880F991F880F991F880F991F820F931F47
:102960008C5F9C4F2B813C812E5F3F4FB9010E94B1
:10297000CD09EB81FC819689E091F602F091F70296
:102980008689981710F081E0898380912C03882331
:1029900009F0BACF80910003882371F007C00E942C
:1029A00028158091000381508093000380910003DB
:1029B0008823A9F781E089838981813021F0809182
:1029C0000103813031F481E08A83109201030E9477
:1029D0008D0C0F900FBE8A810F900F900F900F906B
:1029E000CF91DF910895DF93CF9300D0CDB7DEB7BD
:1029F0000FB6F8940F928091FA029091FB029A839D
:102A000089830F900FBE89819A810F900F90CF918B
:102A1000DF910895DF93CF9300D00F92CDB7DEB74B
:102A200019828091FA029091FB029B838A838A81AA
:102A30009B810F900F900F90CF91DF910895DF93BE
:102A4000CF93CDB7DEB78091F902CF91DF91089592
:102A5000DF93CF9300D000D000D0CDB7DEB7809108
:102A6000FF02882309F0BBC08091FA029091FB021B
:102A700001969093FB028093FA028091FA02909162
:102A8000FB020097D1F580912803909129039C8344
:102A90008B8380912A0390912B0390932903809339
:102AA00028038B819C8190932B0380932A03809130
:102AB00002038F5F80930203E0912803F0912903C2
:102AC0008081882339F48FEF9FEF9093B400809337
:102AD000B30013C0E0912803F09129030580F6812B
:102AE000E02D868197819E838D83ED81FE81828199
:102AF00093819093B4008093B3002091FA023091B7
:102B0000FB028091B3009091B4002817390708F4B4
:102B10006BC0E0912803F09129038081882339F468
:102B20008FEF9FEF9093B4008093B3005DC0E0916E
:102B30002803F09129030580F681E02D8681978195
:102B40009E838D83ED81FE81828193819A83898327
:102B50002091FA023091FB0289819A812817390766
:102B600038F489819A819093B4008093B3003CC07B
:102B70008D819E8102960E94850AED81FE81848965
:102B80009589009729F08D819E810C960E94850A77
:102B9000ED81FE8196898091FD02891728F4ED81EF
:102BA000FE8186898093FD02ED81FE818689282F32
:102BB00030E0C901880F991F880F991F880F991F4E
:102BC000820F931FAC014C5F5C4F8D819E819C01F5
:102BD0002E5F3F4FCA01B9010E94CD099ACF809163
:102BE00000038F5F8093000326960FB6F894DEBF34
:102BF0000FBECDBFCF91DF910895DF93CF9300D06B
:102C0000CDB7DEB78091FF02882349F081E0809341
:102C1000010354C08091FD0281508093FD02809198
:102C2000FD02282F30E0C901880F991F880F991FD6
:102C3000880F991F820F931FFC01EC5FFC4F80816E
:102C4000882341F38091FD02282F30E0C901880FCD
:102C5000991F880F991F880F991F820F931F8C5FF0
:102C60009C4F9A838983E981FA810180F281E02D6A
:102C700082819381E981FA8192838183E981FA815A
:102C80002181328189819A8103962817390759F465
:102C9000E981FA810180F281E02D82819381E981CD
:102CA000FA8192838183E981FA810180F281E02DAA
:102CB000868197819093F7028093F6020F900F9090
:102CC000CF91DF910895DF93CF9300D000D000D053
:102CD000CDB7DEB79C838B837E836D834B815C8114
:102CE0008091F6029091F7029C01245F3F4FCA0148
:102CF000B9010E94190A8091F6029091F70202969A
:102D00000E94850A2091FA023091FB028D819E81FA
:102D1000820F931F9A83898389819A810E945D180B
:102D200026960FB6F894DEBF0FBECDBFCF91DF91D0
:102D30000895DF93CF9300D000D00F92CDB7DEB7C8
:102D40009D838C83EC81FD810580F681E02D868159
:102D500097819B838A838A819B810C960E94850A36
:102D60008091FF02882361F58A819B8102960E94EF
:102D7000850AEA81FB8196898091FD02891728F4F2
:102D8000EA81FB8186898093FD02EA81FB81868945
:102D9000282F30E0C901880F991F880F991F880FCD
:102DA000991F820F931FAC014C5F5C4F8A819B81FE
:102DB0009C012E5F3F4FCA01B9010E94CD090AC094
:102DC0008A819B819C01245F3F4F8CE293E0B90193
:102DD0000E94CD09EA81FB819689E091F602F0918B
:102DE000F7028689981718F081E0898301C019825B
:102DF00089810F900F900F900F900F90CF91DF91DE
:102E00000895DF93CF9300D0CDB7DEB79A8389833F
:102E100080910203E981FA8180838091FA02909186
:102E2000FB02E981FA81928381830F900F90CF9109
:102E3000DF910895DF93CF9300D000D00F92CDB7EC
:102E4000DEB79B838A837D836C830FB6F8940F92E1
:102E5000EA81FB81908180910203981771F0EA81E9
:102E6000FB81218132818091FA029091FB028217CD
:102E7000930718F081E089832FC02091FA023091E6
:102E8000FB02EA81FB8181819281281B390BEC8155
:102E9000FD818081918128173907E0F4EC81FD8163
:102EA00040815181EA81FB81218132818091FA0246
:102EB0009091FB02B901681B790BCB01840F951F20
:102EC000EC81FD81918380838A819B810E9401171F
:102ED000198202C081E089830F900FBE89810F9013
:102EE0000F900F900F900F90CF91DF910895DF9387
:102EF000CF93CDB7DEB781E080930103CF91DF910F
:102F00000895DF93CF9300D0CDB7DEB79A8389833E
:102F10000E941F18FDCF0F931F93DF93CF93CDB760
:102F2000DEB729970FB6F894DEBF0FBECDBF9A83E8
:102F300089837C836B834D833F832E831987088726
:102F400089819A8149962B813C81B90144E150E005
:102F50000E943E26E981FA8114A68D81823010F00C
:102F600081E08D83E981FA818D81868B89819A81C7
:102F700002960E94BD0989819A810C960E94BD0922
:102F8000E981FA8189819A81918780878D81282FB3
:102F900030E082E090E0821B930BE981FA81958713
:102FA0008487E981FA8189819A81938B828B299622
:102FB0000FB6F894DEBF0FBECDBFCF91DF911F914A
:102FC0000F910895DF93CF930F92CDB7DEB719829B
:102FD00013C08981282F30E0C901880F991F880FFD
:102FE000991F880F991F820F931F8C5F9C4F0E941F
:102FF000930989818F5F89838981823050F386E1CB
:1030000093E00E9493098FE193E00E9493098CE280
:1030100093E00E94930985E393E00E94930986E17F
:1030200093E090932903809328038FE193E090939A
:103030002B0380932A030F90CF91DF910895DF93A4
:10304000CF9300D00F92CDB7DEB78091F8028823DE
:1030500071F10E945D14809135031B82882311F465
:1030600081E08B830E9469148B81882301F50FB660
:10307000F8940F92E0913A03F0913B038681978197
:103080009A83898389819A8102960E94850A809118
:10309000F90281508093F9028091F8028150809367
:1030A000F8020F900FBE89819A810E94F6180F9046
:1030B0000F900F90CF91DF910895DF93CF9300D0C1
:1030C000CDB7DEB79A838983E091F602F091F702DB
:1030D00089819A81938382832091FA023091FB0245
:1030E00089819A818217930770F480912A039091C5
:1030F0002B032091F6023091F7022E5F3F4FB9016A
:103100000E94190A1EC04091280350912903809102
:10311000F6029091F7029C012E5F3F4FCA01B90160
:103120000E94190A2091B3003091B40089819A81DC
:103130008217930730F489819A819093B400809329
:10314000B3000F900F90CF91DF910895DF93CF934D
:10315000CDB7DEB728970FB6F894DEBF0FBECDBF50
:103160009C838B837E836D838DE290E00E94270990
:103170009A83898389819A81009769F18D819E81E3
:10318000009739F48B819C810E94270998878F834F
:1031900004C08D819E8198878F83E981FA818F8118
:1031A0009885908F878BE981FA818789908D009728
:1031B00039F489819A810E946D091A8219820BC0A3
:1031C000E981FA818789908D2B813C8165EA70E0E5
:1031D000A9010E942E2689819A8128960FB6F8941B
:1031E000DEBF0FBECDBFCF91DF910895DF93CF93A8
:1031F00000D0CDB7DEB79A838983E981FA818789C8
:10320000908D0E946D0989819A810E946D090F90AD
:103210000F90CF91DF910895DF93CF93CDB7DEB7B5
:1032200080E060E041E00E94482180E061E041E010
:103230000E94482180E062E041E00E94482180E055
:1032400063E041E00E94482180E064E040E00E94A9
:10325000482180E065E040E00E94482180E066E08F
:1032600040E00E94482180E067E040E00E94482161
:1032700080E06FEF0E94B224CF91DF910895DF9339
:10328000CF9300D000D00F92CDB7DEB780E28C8311
:1032900019821B823FC080E06B8140E00E946F2258
:1032A00084E08A832CC080E06A810E949623882370
:1032B00019F58B81482F50E08A81882F90E09C017E
:1032C00024503040CA01880F991F880F991F820F20
:1032D000931FFC01EB54FF4F80818C8380E06A8157
:1032E0000E9496238823D1F380E06B8141E00E9405
:1032F0006F2281E0898306C08A818F5F8A838A81F9
:10330000883088F280E06B8141E00E946F228B81DF
:103310008F5F8B838B81843008F4BDCF89818130AE
:1033200021F48C818D838D8100C00F900F900F90C0
:103330000F900F90CF91DF9108950F931F93DF931C
:10334000CF93CDB7DEB7CC54D0400FB6F894DEBFE4
:103350000FBECDBFFE01E75BFF4F80E090E0ACE029
:10336000B2E480839183A283B3838E010B5B1F4FF2
:10337000FE01E75BFF4F608171818281938120E0D4
:1033800030E04AEF54E40E941F02DC01CB01F80157
:1033900080839183A283B383FE01EB5BFF4F608147
:1033A00071818281938120E030E040E85FE30E94F8
:1033B0002504882344F4FE01ED5BFF4F81E090E09B
:1033C0009183808364C0FE01EB5BFF4F608171815C
:1033D0008281938120E03FEF4FE757E40E94C503CD
:1033E00018160CF043C0FE01E75BFF4F608171814E
:1033F0008281938120E030E040E251E40E941F028C
:10340000DC01CB018E010D5B1F4FBC01CD010E9481
:103410004900DC01CB01F801918380831FC0FE01CC
:10342000EF5BFF4F88EC90E091838083FE01EF5BC0
:10343000FF4F808191810197F1F7FE01EF5BFF4F14
:1034400091838083DE01AD5BBF4FFE01ED5BFF4FDB
:1034500080819181019711969C938E93FE01ED5B83
:10346000FF4F808191810097D1F624C08E010D5BC2
:103470001F4FFE01EB5BFF4F608171818281938161
:103480000E944900DC01CB01F80191838083FE0199
:10349000ED5BFF4F80819181FE01FF9691838083D8
:1034A000FE01FF96808191810197F1F7FE01FF9661
:1034B0009183808388E30E94601C80E090E0A0E21A
:1034C000B2E48BAF9CAFADAFBEAF6BAD7CAD8DAD9D
:1034D0009EAD2BEA3AEA4AE250E40E941F02DC0168
:1034E000CB018FAB98AFA9AFBAAF6FA978AD89AD5B
:1034F0009AAD20E030E040E85FE30E942504882395
:103500001CF481E08EAB91C06FA978AD89AD9AAD06
:1035100020E030E04FE753E40E94C50318160CF09A
:103520007BC06BAD7CAD8DAD9EAD20E030E04AE759
:1035300054E40E941903DC01CB018AAB9BABACAB1A
:10354000BDAB6AA97BA98CA99DA920E030E04AEF18
:1035500054E40E941F02DC01CB018EA79FA7A8ABF9
:10356000B9AB6EA57FA588A999A920E030E040E815
:103570005FE30E94250488232CF481E090E09DA75E
:103580008CA73FC06EA57FA588A999A920E03FEF31
:103590004FE757E40E94C50318164CF56AA97BA9AA
:1035A0008CA99DA920E030E040E251E40E941F0276
:1035B000DC01CB01BC01CD010E944900DC01CB0143
:1035C0009DA78CA70FC088EC90E09BA78AA78AA52F
:1035D0009BA50197F1F79BA78AA78CA59DA50197AD
:1035E0009DA78CA78CA59DA5009769F724C06EA503
:1035F0007FA588A999A90E944900DC01CB019DA75C
:103600008CA78CA59DA599A788A788A599A50197A2
:10361000F1F799A788A70FC06FA978AD89AD9AADCA
:103620000E944900DC01CB018EAB8EA98FA38FA134
:103630008A95F1F78FA38FE00E94601C80E090E0F4
:10364000A0E2B2E48BA39CA3ADA3BEA36BA17CA11B
:103650008DA19EA12BEA3AEA4AE250E40E941F02A1
:10366000DC01CB018F8F98A3A9A3BAA36F8D78A19A
:1036700089A19AA120E030E040E85FE30E942504A0
:1036800088231CF481E08E8F91C06F8D78A189A171
:103690009AA120E030E04FE753E40E94C5031816DA
:1036A0000CF07BC06BA17CA18DA19EA120E030E03D
:1036B0004AE754E40E941903DC01CB018A8F9B8FF7
:1036C000AC8FBD8F6A8D7B8D8C8D9D8D20E030E021
:1036D0004AEF54E40E941F02DC01CB018E8B9F8BCA
:1036E000A88FB98F6E897F89888D998D20E030E011
:1036F00040E85FE30E94250488232CF481E090E0F9
:103700009D8B8C8B3FC06E897F89888D998D20E041
:103710003FEF4FE757E40E94C50318164CF56A8D3A
:103720007B8D8C8D9D8D20E030E040E251E40E9445
:103730001F02DC01CB01BC01CD010E944900DC016C
:10374000CB019D8B8C8B0FC088EC90E09B8B8A8B80
:103750008A899B890197F1F79B8B8A8B8C899D893C
:1037600001979D8B8C8B8C899D89009769F724C06C
:103770006E897F89888D998D0E944900DC01CB017B
:103780009D8B8C8B8C899D89998B888B8889998955
:103790000197F1F7998B888B0FC06F8D78A189A164
:1037A0009AA10E944900DC01CB018E8F8E8D8F87FC
:1037B0008F858A95F1F78F8781E00E94601C80E0F9
:1037C00090E0A0E0B0E48B879C87AD87BE876B85D7
:1037D0007C858D859E8520E030E04AEF54E40E9490
:1037E0001F02DC01CB018F839887A987BA876F817D
:1037F000788589859A8520E030E040E85FE30E9483
:10380000250488232CF481E090E09E838D833FC0C3
:103810006F81788589859A8520E03FEF4FE757E4EF
:103820000E94C50318164CF56B857C858D859E8599
:1038300020E030E040E251E40E941F02DC01CB01B5
:10384000BC01CD010E944900DC01CB019E838D8328
:103850000FC088EC90E09C838B838B819C810197C7
:10386000F1F79C838B838D819E8101979E838D834D
:103870008D819E81009769F714C06F817885898555
:103880009A850E944900DC01CB019E838D838D8146
:103890009E819A83898389819A810197F1F79A831E
:1038A000898386E00E94601CC45BDF4F0FB6F894EA
:1038B000DEBF0FBECDBFCF91DF911F910F91089555
:1038C000DF93CF93CDB7DEB769970FB6F894DEBF1D
:1038D0000FBECDBF898F82E060E041E00E944821A9
:1038E00082E060E040E00E946F2282E061E041E01F
:1038F0000E94482182E061E040E00E946F2281E066
:103900006FEF0E94182481E0698D0E94B22482E04A
:1039100062E041E00E94482182E062E041E00E94D2
:103920006F2280E090E0A0E8BFE38D8B9E8BAF8B91
:10393000B88F6D897E898F89988D2BEA3AEA4AE2A1
:1039400050E40E941F02DC01CB01898B9A8BAB8B68
:10395000BC8B69897A898B899C8920E030E040E8BA
:103960005FE30E94250488231CF481E0888B91C0CA
:1039700069897A898B899C8920E030E04FE753E49C
:103980000E94C50318160CF07BC06D897E898F8953
:10399000988D20E030E04AE754E40E941903DC01EE
:1039A000CB018C879D87AE87BF876C857D858E8593
:1039B0009F8520E030E04AEF54E40E941F02DC01C2
:1039C000CB0188879987AA87BB87688579858A858F
:1039D0009B8520E030E040E85FE30E9425048823D7
:1039E0002CF481E090E09F838E833FC068857985C9
:1039F0008A859B8520E03FEF4FE757E40E94C5038F
:103A000018164CF56C857D858E859F8520E030E00D
:103A100040E251E40E941F02DC01CB01BC01CD0158
:103A20000E944900DC01CB019F838E830FC088EC8C
:103A300090E09D838C838C819D810197F1F79D831C
:103A40008C838E819F8101979F838E838E819F813E
:103A5000009769F724C0688579858A859B850E94CF
:103A60004900DC01CB019F838E838E819F819B83E4
:103A70008A838A819B810197F1F79B838A830FC098
:103A800069897A898B899C890E944900DC01CB0174
:103A9000888B8889898389818A95F1F7898382E077
:103AA00062E040E00E946F2269960FB6F894DEBF94
:103AB0000FBECDBFCF91DF910895DF93CF93CDB7E8
:103AC000DEB769970FB6F894DEBF0FBECDBF898F02
:103AD00082E060E041E00E94482182E060E041E055
:103AE0000E946F2282E061E041E00E94482182E072
:103AF00061E040E00E946F2281E06FEF0E94182495
:103B000081E0698D0E94B22482E062E041E00E947F
:103B1000482182E062E041E00E946F2280E090E074
:103B2000A0E8BFE38D8B9E8BAF8BB88F6D897E89AC
:103B30008F89988D2BEA3AEA4AE250E40E941F02EC
:103B4000DC01CB01898B9A8BAB8BBC8B69897A8921
:103B50008B899C8920E030E040E85FE30E942504E7
:103B600088231CF481E0888B91C069897A898B89CC
:103B70009C8920E030E04FE753E40E94C50318160B
:103B80000CF07BC06D897E898F89988D20E030E0B4
:103B90004AE754E40E941903DC01CB018C879D871E
:103BA000AE87BF876C857D858E859F8520E030E060
:103BB0004AEF54E40E941F02DC01CB0188879987F9
:103BC000AA87BB87688579858A859B8520E030E058
:103BD00040E85FE30E94250488232CF481E090E014
:103BE0009F838E833FC0688579858A859B8520E089
:103BF0003FEF4FE757E40E94C50318164CF56C855C
:103C00007D858E859F8520E030E040E251E40E9472
:103C10001F02DC01CB01BC01CD010E944900DC0187
:103C2000CB019F838E830FC088EC90E09D838C83B3
:103C30008C819D810197F1F79D838C838E819F817B
:103C400001979F838E838E819F81009769F724C09F
:103C5000688579858A859B850E944900DC01CB01B6
:103C60009F838E838E819F819B838A838A819B81A0
:103C70000197F1F79B838A830FC069897A898B89C1
:103C80009C890E944900DC01CB01888B888989834B
:103C900089818A95F1F7898382E062E040E00E94A1
:103CA0006F2269960FB6F894DEBF0FBECDBFCF91DD
:103CB000DF910895DF93CF93CDB7DEB762970FB64C
:103CC000F894DEBF0FBECDBF9A8B898B188A898985
:103CD0009A890E9435268F8780C08889282F30E0F6
:103CE00089899A89FC01E20FF31F80810E945D1D82
:103CF00088898F5F888B80E090E0A0E0B0E48B87BC
:103D00009C87AD87BE876B857C858D859E8520E0F1
:103D100030E04AEF54E40E941F02DC01CB018F83A4
:103D20009887A987BA876F81788589859A8520E0E9
:103D300030E040E85FE30E94250488232CF481E012
:103D400090E09E838D833FC06F81788589859A85B9
:103D500020E03FEF4FE757E40E94C50318164CF5EB
:103D60006B857C858D859E8520E030E040E251E4C6
:103D70000E941F02DC01CB01BC01CD010E94490061
:103D8000DC01CB019E838D830FC088EC90E09C8387
:103D90008B838B819C810197F1F79C838B838D8131
:103DA0009E8101979E838D838D819E81009769F707
:103DB00014C06F81788589859A850E944900DC014D
:103DC000CB019E838D838D819E819A838983898196
:103DD0009A810197F1F79A83898398898F8598173B
:103DE00008F47BCF62960FB6F894DEBF0FBECDBF4E
:103DF000CF91DF910895DF93CF9300D000D0CDB75E
:103E0000DEB789836A838981282F30E03C832B8346
:103E10008B819C81009731F02B813C8121303105D1
:103E200031F009C08A8180580E94601C04C08A81D8
:103E300080540E94601C0F900F900F900F90CF91B4
:103E4000DF910895DF93CF93CDB7DEB72E970FB6EE
:103E5000F894DEBF0FBECDBF81E00E94601C80E001
:103E600090E0A0E0B0E48B879C87AD87BE876B8530
:103E70007C858D859E8520E030E04AEF54E40E94E9
:103E80001F02DC01CB018F839887A987BA876F81D6
:103E9000788589859A8520E030E040E85FE30E94DC
:103EA000250488232CF481E090E09E838D833FC01D
:103EB0006F81788589859A8520E03FEF4FE757E449
:103EC0000E94C50318164CF56B857C858D859E85F3
:103ED00020E030E040E251E40E941F02DC01CB010F
:103EE000BC01CD010E944900DC01CB019E838D8382
:103EF0000FC088EC90E09C838B838B819C81019721
:103F0000F1F79C838B838D819E8101979E838D83A6
:103F10008D819E81009769F714C06F8178858985AE
:103F20009A850E944900DC01CB019E838D838D819F
:103F30009E819A83898389819A810197F1F79A8377
:103F400089832E960FB6F894DEBF0FBECDBFCF91FA
:103F5000DF910895DF93CF9300D000D0CDB7DEB7C7
:103F60008A837C836B838A810E94601C19820EC0C5
:103F70008981282F30E08B819C81FC01E20FF31FA7
:103F800080810E945D1D89818F5F8983898188304E
:103F900078F30F900F900F900F90CF91DF910895CD
:103FA000DF93CF9300D00F92CDB7DEB7898389819D
:103FB000282F30E03B832A838A819B8188319105B9
:103FC00031F02A813B812C31310529F007C088E18D
:103FD0000E94601C03C08CE10E94601C0F900F9037
:103FE0000F90CF91DF910895DF93CF93CDB7DEB7D8
:103FF00029970FB6F894DEBF0FBECDBF98878F8389
:104000001E821C821B828F819885009721F480E399
:104010000E945D1D0EC08F819885992354F48DE216
:104020000E945D1D8F819885909581959F4F9887FF
:104030008F838F8198859A83898329C089819A810A
:104040002AE030E0B9010E94C7258D838B819C81D5
:104050009C01220F331FC901880F991F880F991FD8
:10406000280F391F8D81992787FD9095820F931F07
:104070009C838B8389819A812AE030E0B9010E9478
:10408000C725CB019A8389838E818F5F8E83898137
:104090009A81009799F616C08B819C812AE030E0C6
:1040A000B9010E94C7258D838D81805D0E945D1DB1
:1040B0008B819C812AE030E0B9010E94C725CB01A9
:1040C0009C838B838E8189878985882311F081E089
:1040D000898789859E8191509E838823E9F6299658
:1040E0000FB6F894DEBF0FBECDBFCF91DF9108951C
:1040F000AF92BF92CF92DF92EF92FF920F93DF9336
:10410000CF93CDB7DEB70E9431210E941B210E94C0
:104110000C190E949D1985E061E00E94A00D90930A
:104120003F0380933E0380913E0390913F030097AD
:1041300021F485E690E00E945A1E82EF90E22AE781
:1041400030E0B90144E650E020E030E002E0EE2447
:10415000FF24CC24DD24AA24BB240E942112992709
:1041600087FD9095009721F48DE790E00E945A1EFC
:1041700086ED90E221E930E0B90144E650E020E02C
:1041800030E001E0EE24FF24CC24DD24AA24BB246B
:104190000E942112992787FD9095009721F484E9C8
:1041A00090E00E945A1E0E941A14FFCFDF93CF9313
:1041B0000F92CDB7DEB719820E943F198983809193
:1041C0003E0390913F039E012F5F3F4FB90148ECA2
:1041D00050E020E00E94490E198282E390E00E94A4
:1041E000E513E9CFDF93CF930F92CDB7DEB71982F6
:1041F00080913E0390913F039E012F5F3F4FB90195
:1042000048EC50E020E00E94340F89818F3639F469
:104210000E94221F80E060E00E94FB1E06C0898190
:10422000882329F389810E945D1D198282E390E031
:104230000E94E513DCCFDF93CF93CDB7DEB7EBE37E
:10424000F0E088EF8083E8E3F0E01082E5E3F0E05F
:1042500084E08083E2E3F0E081E08083CF91DF912E
:104260000895DF93CF93CDB7DEB7EAE3F0E08FE0B8
:104270008083E7E3F0E08FEF8083E4E3F0E08FEF0B
:104280008083E1E3F0E08BEF8083CF91DF910895AD
:10429000DF93CF93CDB7DEB72E970FB6F894DEBF7E
:1042A0000FBECDBF8A836B834C8381E089838A8173
:1042B000843008F009C18B81883008F005C18C81F9
:1042C000823008F001C18A81282F30E03E872D8797
:1042D0008D859E858130910509F44FC02D853E85E1
:1042E000223031052CF48D859E85009771F0EDC04C
:1042F0002D853E852230310509F477C08D859E8558
:104300008330910509F4A9C0E0C08C81282F30E0EA
:104310003C872B878B859C850097D1F02B853C852E
:104320002130310509F0D1C0AAE3B0E0EAE3F0E0C2
:104330008081482F8B81282F30E081E090E0022E91
:1043400002C0880F991F0A94E2F7842B8C93BDC09A
:10435000AAE3B0E0EAE3F0E08081482F8B81282FC8
:1043600030E081E090E0022E02C0880F991F0A948D
:10437000E2F7809584238C93A8C08C81282F30E0AD
:104380003A87298789859A850097D1F029853A85CA
:104390002130310509F099C0A7E3B0E0E7E3F0E090
:1043A0008081482F8B81282F30E081E090E0022E21
:1043B00002C0880F991F0A94E2F7842B8C9385C062
:1043C000A7E3B0E0E7E3F0E08081482F8B81282F5E
:1043D00030E081E090E0022E02C0880F991F0A941D
:1043E000E2F7809584238C9370C08C81282F30E075
:1043F00038872F838F8198850097D1F02F8138855A
:104400002130310509F061C0A4E3B0E0E4E3F0E05D
:104410008081482F8B81282F30E081E090E0022EB0
:1044200002C0880F991F0A94E2F7842B8C934DC029
:10443000A4E3B0E0E4E3F0E08081482F8B81282FF3
:1044400030E081E090E0022E02C0880F991F0A94AC
:10445000E2F7809584238C9338C08C81282F30E03C
:104460003E832D838D819E810097C9F02D813E81F1
:104470002130310551F5A1E3B0E0E1E3F0E08081C6
:10448000482F8B81282F30E081E090E0022E02C07F
:10449000880F991F0A94E2F7842B8C9316C0A1E32E
:1044A000B0E0E1E3F0E08081482F8B81282F30E0FD
:1044B00081E090E0022E02C0880F991F0A94E2F773
:1044C000809584238C9301C0198289812E960FB622
:1044D000F894DEBF0FBECDBFCF91DF910895DF937B
:1044E000CF93CDB7DEB72E970FB6F894DEBF0FBED1
:1044F000CDBF8A836B834C8381E089838A8184303A
:1045000008F009C18B81883008F005C18C818230A8
:1045100008F001C18A81282F30E03E872D878D85E4
:104520009E858130910509F44FC02D853E8522304E
:1045300031052CF48D859E85009771F0EDC02D8599
:104540003E852230310509F477C08D859E85833004
:10455000910509F4A9C0E0C08C81282F30E03C8788
:104560002B878B859C850097D1F02B853C8521304E
:10457000310509F0D1C0ABE3B0E0EBE3F0E08081BE
:10458000482F8B81282F30E081E090E0022E02C07E
:10459000880F991F0A94E2F7842B8C93BDC0ABE37C
:1045A000B0E0EBE3F0E08081482F8B81282F30E0F2
:1045B00081E090E0022E02C0880F991F0A94E2F772
:1045C000809584238C93A8C08C81282F30E03A8773
:1045D000298789859A850097D1F029853A852130E8
:1045E000310509F099C0A8E3B0E0E8E3F0E080818C
:1045F000482F8B81282F30E081E090E0022E02C00E
:10460000880F991F0A94E2F7842B8C9385C0A8E346
:10461000B0E0E8E3F0E08081482F8B81282F30E084
:1046200081E090E0022E02C0880F991F0A94E2F701
:10463000809584238C9370C08C81282F30E038873C
:104640002F838F8198850097D1F02F813885213075
:10465000310509F061C0A5E3B0E0E5E3F0E0808159
:10466000482F8B81282F30E081E090E0022E02C09D
:10467000880F991F0A94E2F7842B8C934DC0A5E311
:10468000B0E0E5E3F0E08081482F8B81282F30E017
:1046900081E090E0022E02C0880F991F0A94E2F791
:1046A000809584238C9338C08C81282F30E03E8302
:1046B0002D838D819E810097C9F02D813E8121300F
:1046C000310551F5A2E3B0E0E2E3F0E08081482F4C
:1046D0008B81282F30E081E090E0022E02C0880F0D
:1046E000991F0A94E2F7842B8C9316C0A2E3B0E0E2
:1046F000E2E3F0E08081482F8B81282F30E081E0D9
:1047000090E0022E02C0880F991F0A94E2F780956C
:1047100084238C9301C0198289812E960FB6F89458
:10472000DEBF0FBECDBFCF91DF910895DF93CF9352
:1047300000D000D00F92CDB7DEB78A836B83198289
:104740008A81843008F06BC08B81883008F067C0A4
:104750008A81282F30E03D832C834C815D8141305C
:10476000510541F18C819D818230910534F42C8179
:104770003D812115310561F052C04C815D8142308F
:10478000510551F18C819D8183309105B9F147C06C
:10479000E9E3F0E08081282F30E08B81882F90E0E2
:1047A000A90102C0559547958A95E2F7CA01817023
:1047B000898335C0E6E3F0E08081282F30E08B81EB
:1047C000882F90E0A90102C0559547958A95E2F798
:1047D000CA018170898323C0E3E3F0E08081282F40
:1047E00030E08B81882F90E0A90102C05595479554
:1047F0008A95E2F7CA018170898311C0E0E3F0E095
:104800008081282F30E08B81882F90E0A90102C0A1
:10481000559547958A95E2F7CA0181708983898108
:104820000F900F900F900F900F90CF91DF91089500
:10483000DF93CF93CDB7DEB72D970FB6F894DEBFD9
:104840000FBECDBF8A836B8381E089838A818430E8
:1048500008F07DC08A81282F30E03D872C878C8529
:104860009D858130910571F12C853D852230310582
:104870002CF48C859D85009769F06AC02C853D8558
:1048800022303105B1F18C859D858330910509F485
:1048900047C05EC08B81282F30E03B872A878A85FE
:1048A0009B85009759F02A853B852F3F310509F0FC
:1048B0004FC0EAE3F0E08FEF80834AC0EAE3F0E024
:1048C000108246C08B81282F30E039872887888561
:1048D0009985009751F0288539852F3F3105C1F51D
:1048E000E7E3F0E08FEF808333C0E7E3F0E010828E
:1048F0002FC08B81282F30E03F832E838E819F81B4
:10490000009751F02E813F812F3F310509F5E4E3F7
:10491000F0E08FEF80831CC0E4E3F0E0108218C069
:104920008B81282F30E03D832C838C819D810097E3
:1049300051F02C813D812F3F310551F4E1E3F0E04E
:104940008FEF808305C0E1E3F0E0108201C019829F
:1049500089812D960FB6F894DEBF0FBECDBFCF91E3
:10496000DF910895DF93CF9300D000D00F92CDB7A1
:10497000DEB78A836B8381E089838A81843098F5EE
:104980008A81282F30E03D832C838C819D8181306A
:104990009105D1F02C813D81223031052CF48C81A0
:1049A0009D81009761F020C02C813D81223031052E
:1049B00081F08C819D818330910581F015C0EBE3FE
:1049C000F0E08B81808310C0E8E3F0E08B8180838E
:1049D0000BC0E5E3F0E08B81808306C0E2E3F0E00A
:1049E0008B81808301C0198289810F900F900F9075
:1049F0000F900F90CF91DF910895DF93CF9300D068
:104A000000D000D0CDB7DEB78A837C836B8381E092
:104A100089838A81843008F03FC08B819C81009714
:104A2000D9F18A81282F30E03E832D838D819E81AC
:104A300081309105E1F02D813E81223031052CF449
:104A40008D819E81009761F028C02D813E812230AA
:104A50003105A1F08D819E8183309105B1F01DC09B
:104A6000E9E3F0E08081EB81FC81808316C0E6E31E
:104A7000F0E08081EB81FC8180830FC0E3E3F0E014
:104A80008081EB81FC81808308C0E0E3F0E08081DD
:104A9000EB81FC81808301C01982898126960FB643
:104AA000F894DEBF0FBECDBFCF91DF910895DF93A5
:104AB000CF9300D000D0CDB7DEB78A838A81282F6C
:104AC00030E03C832B838B819C818130910531F1D7
:104AD0002B813C81223031052CF48B819C81009705
:104AE00061F04EC02B813C812230310541F18B8138
:104AF0009C8183309105A1F143C0E9E3F0E080811E
:104B0000898389818F3F29F480E060E00E94B2248C
:104B100037C080E06FEF0E94B22432C0E6E3F0E0DD
:104B20008081898389818F3F29F481E060E00E9440
:104B3000B22426C081E06FEF0E94B22421C0E3E3DB
:104B4000F0E08081898389818F3F29F482E060E0F1
:104B50000E94B22415C082E06FEF0E94B22410C000
:104B6000E0E3F0E08081898389818F3F29F483E04D
:104B700060E00E94B22404C083E06FEF0E94B22480
:104B80000F900F900F900F90CF91DF91089597FBAA
:104B9000092E07260AD077FD04D00CD006D00020BD
:104BA0001AF4709561957F4F0895F6F79095819569
:104BB0009F4F0895AA1BBB1B51E107C0AA1FBB1F33
:104BC000A617B70710F0A61BB70B881F991F5A9599
:104BD000A9F780959095BC01CD0108952F923F9241
:104BE0004F925F926F927F928F929F92AF92BF92FD
:104BF000CF92DF92EF92FF920F931F93CF93DF93A9
:104C0000CDB7DEB7CA1BDB0B0FB6F894DEBF0FBE05
:104C1000CDBF09942A88398848885F846E847D8452
:104C20008C849B84AA84B984C884DF80EE80FD8054
:104C30000C811B81AA81B981CE0FD11D0FB6F894CA
:104C4000DEBF0FBECDBFED010895FB01DC0102C048
:104C500001900D9241505040D8F70895DC0101C0F9
:104C60006D9341505040E0F70895FC010190002001
:104C7000E9F7809590958E0F9F1F0895FB01DC0149
:104C80004150504048F001900D920020C9F701C0FA
:0E4C90001D9241505040E0F70895F894FFCF78
:104C9E0049444C45005175657565206973206E6FEA
:104CAE00742063726561746564004E32004C434437
:104CBE005461736B206E6F742063726561746564EA
:104CCE00004E31004B65795061645461736B206EF8
:104CDE006F742063726561746564000000000000EB
:104CEE00000000FFFF3734316F383532303936333C
:064CFE003D2F2A2D2B00C2
:00000001FF
