:100000000C942A000C94D3070C9406080C9439081D
:100010000C9447000C9447000C9461190C94470011
:100020000C9447000C9447000C9455180C94F4174A
:100030000C9447000C9447000C9447000C94470024
:100040000C9447000C9447000C9447000C94470014
:100050000C94470011241FBECFE5D8E0DEBFCDBF12
:1000600010E0A0E6B0E0EAE8F5E302C005900D92EA
:10007000A438B107D9F710E0A4E8B0E001C01D92A0
:10008000A03EB107E1F70E94DF0F0C94C31A0C9455
:100090000000EF92FF920F931F937B018C0120E0F1
:1000A00030E040E05FE40E94F50388238CF0C80153
:1000B000B70120E030E040E05FE40E94C1010E940F
:1000C00055049B01AC01205030404040504806C0D0
:1000D000C801B7010E9455049B01AC01B901CA01D6
:1000E0001F910F91FF90EF900895A0E0B0E0EBE733
:1000F000F0E00C94831ADC012B01FA019C91923000
:1001000008F439C1EB018881823008F433C194309E
:1001100069F4843009F02FC111969C91119789815F
:10012000981709F428C1ACE6B0E025C1843009F481
:1001300021C18230A9F4923009F01DC19A01AD01AC
:1001400088E0EA010990AE01E90109929E0181501F
:10015000C1F7E201898111969C918923818308C1AD
:10016000923009F407C112962D903C901397EB0141
:100170008A819B811496AD90BD90CD90DC901797AD
:10018000EC80FD800E811F819101281B390BB90184
:1001900037FF04C066277727621B730B6032710537
:1001A0000CF061C0121613066CF537014801062EDB
:1001B00004C096948794779467940A94D2F721E0C8
:1001C00030E040E050E004C0220F331F441F551FB1
:1001D0006A95D2F721503040404050402E213F21B7
:1001E00040235123211531054105510521F021E01E
:1001F00030E040E050E079018A01E628F72808293C
:1002000019293CC0232BD1F1260E371E350146019A
:10021000062E04C096948794779467940A94D2F734
:1002200021E030E040E050E004C0220F331F441FC3
:10023000551F6A95D2F721503040404050402A2146
:100240003B214C215D21211531054105510521F04E
:1002500021E030E040E050E059016A01A628B728CB
:10026000C828D9280BC0821593052CF01C01AA249C
:10027000BB24650103C0EE24FF24870111969C91E5
:10028000D20111968C91981709F445C0992339F041
:10029000A80197012A193B094C095D0906C0A6016E
:1002A00095012E193F09400B510B57FD08C01182D3
:1002B0003382228224833583468357831DC081E0A5
:1002C00081833382228288279927DC01821B930B4A
:1002D000A40BB50B84839583A683B7830DC0220F2F
:1002E000331F441F551F24833583468357838281E0
:1002F000938101979383828324813581468157813D
:10030000DA01C9010197A109B1098F5F9F4FAF4F72
:10031000BF4328F30BC0918333822282EA0CFB1C7B
:100320000C1D1D1DE482F5820683178383E0808304
:10033000248135814681578157FF1AC0C901AA27F8
:1003400097FDA095BA2F81709070A070B0705695EF
:10035000479537952795822B932BA42BB52B848318
:100360009583A683B7838281938101969383828349
:10037000DF0101C0D201CD01CDB7DEB7E2E10C94BF
:100380009F1AA0E2B0E0E7ECF1E00C948F1A6983C9
:100390007A838B839C832D833E834F835887E9E048
:1003A000EE2EF12CEC0EFD1ECE010196B7010E943F
:1003B0007E058E010F5E1F4FCE010596B8010E948B
:1003C0007E058A8991E089278A8BC701B801AE0131
:1003D000475E5F4F0E9475000E94A904A096E6E068
:1003E0000C94AB1AA0E2B0E0E8EFF1E00C948F1AA5
:1003F00069837A838B839C832D833E834F835887C5
:10040000F9E0EF2EF12CEC0EFD1ECE010196B701A6
:100410000E947E058E010F5E1F4FCE010596B8012A
:100420000E947E05C701B801AE01475E5F4F0E9482
:1004300075000E94A904A096E6E00C94AB1AA0E215
:10044000B0E0E5E2F2E00C94831A69837A838B834F
:100450009C832D833E834F835887CE010196BE0136
:10046000675F7F4F0E947E05CE010596BE016F5EDD
:100470007F4F0E947E059985923088F0898982306D
:10048000C8F0943019F4823051F404C0843029F457
:10049000923081F48CE690E0C6C0923049F420E0BE
:1004A0009A858A89981321E02A87CE010996BBC0D4
:1004B000823049F420E09A858A89981321E02A8BBA
:1004C000CE014196B0C02D843E844F8458886D88FB
:1004D0007E888F88988CEE24FF248701AA24BB2471
:1004E000650140E050E060E070E0E0E0F0E0C10174
:1004F00081709070892BE9F0E60CF71C081D191D1E
:100500009A01AB012A0D3B1D4C1D5D1D80E090E062
:10051000A0E0B0E0E614F7040805190520F481E036
:1005200090E0A0E0B0E0BA01A901480F591F6A1F8E
:100530007B1FAA0CBB1CCC1CDD1C97FE08C081E0F5
:1005400090E0A0E0B0E0A82AB92ACA2ADB2A3196B6
:10055000E032F10549F0660C771C881C991C569412
:10056000479437942794C3CFFA85EA892B893C892D
:100570008B859C85280F391F2E5F3F4F17C0CA01FE
:1005800081709070892B61F016950795F794E79428
:1005900080E090E0A0E0B0E8E82AF92A0A2B1B2BC3
:1005A00076956795579547952F5F3F4F77FDE7CF36
:1005B0000CC0440F551F661F771F17FD4160EE0CDE
:1005C000FF1C001F111F21503040403090E05907A0
:1005D00090E0690790E4790760F32B8F3C8FDB0193
:1005E000CA018F779070A070B07080349105A1051A
:1005F000B10561F447FD0AC0E114F10401051105DC
:1006000029F0405C5F4F6F4F7F4F40781A8EFE1786
:1006100011F081E08A8F4D8F5E8F6F8F78A383E01A
:10062000898FCE0149960E94A904A096E2E10C941C
:100630009F1AA8E1B0E0EFE1F3E00C948B1A698314
:100640007A838B839C832D833E834F835887B9E0C5
:10065000EB2EF12CEC0EFD1ECE010196B7010E948F
:100660007E058E010F5E1F4FCE010596B8010E94D8
:100670007E052985223008F47EC03989323010F495
:10068000B8017CC08A859A8989278A87243011F02D
:10069000223031F4231709F06EC06CE670E06EC0B2
:1006A000343039F41D861E861F86188A1C861B86E8
:1006B00004C0323021F484E08987B7015FC02B8504
:1006C0003C858B899C89281B390B3C872B87ED84C3
:1006D000FE840F851889AD88BE88CF88D88CEA142F
:1006E000FB040C051D0540F4EE0CFF1C001F111F40
:1006F000215030403C872B8720E030E040E050E044
:1007000080E090E0A0E0B0E460E070E0EA14FB0478
:100710000C051D0540F0282B392B4A2B5B2BEA18C2
:10072000FB080C091D09B695A79597958795EE0CC2
:10073000FF1C001F111F6F5F7F4F6F31710531F775
:10074000DA01C9018F779070A070B0708034910584
:10075000A105B10561F427FD0AC0E114F10401050A
:10076000110529F0205C3F4F4F4F5F4F20782D87B8
:100770003E874F87588BBE01675F7F4FCB010E943A
:10078000A9046896EAE00C94A71AA8E1B0E0EBECA3
:10079000F3E00C948F1A69837A838B839C832D8377
:1007A0003E834F83588789E0E82EF12CEC0EFD1E26
:1007B000CE010196B7010E947E058E010F5E1F4F8C
:1007C000CE010596B8010E947E058985823040F0F1
:1007D0008989823028F0C701B8010E94F60501C05E
:1007E0008FEF6896E6E00C94AB1AA8E1B0E0EBEF6F
:1007F000F3E00C948F1A69837A838B839C832D8317
:100800003E834F83588789E0E82EF12CEC0EFD1EC5
:10081000CE010196B7010E947E058E010F5E1F4F2B
:10082000CE010596B8010E947E058985823040F090
:100830008989823028F0C701B8010E94F60501C0FD
:100840008FEF6896E6E00C94AB1AA8E1B0E0EBE21B
:10085000F4E00C948F1A69837A838B839C832D83B5
:100860003E834F83588789E0E82EF12CEC0EFD1E65
:10087000CE010196B7010E947E058E010F5E1F4FCB
:10088000CE010596B8010E947E058985823040F030
:100890008989823028F0C701B8010E94F60501C09D
:1008A00081E06896E6E00C94AB1AACE0B0E0EBE5D2
:1008B000F4E00C94931A69837A838B839C83CE0132
:1008C0000196BE016B5F7F4F0E947E058D81823055
:1008D00061F1823050F1843021F48E81882351F10E
:1008E0002EC02F81388537FD20C06E812F31310514
:1008F0001CF06623F9F023C08EE190E0821B930B7D
:1009000029853A854B855C8504C056954795379572
:1009100027958A95D2F76623B1F05095409530958A
:1009200021953F4F4F4F5F4F0EC020E030E040E039
:1009300050E009C02FEF3FEF4FEF5FE704C020E02A
:1009400030E040E050E8B901CA012C96E2E00C9496
:10095000AF1ADF92EF92FF920F931F93FC01E48096
:10096000F58006811781D1808081823048F480E053
:1009700090E0A0E1B0E0E82AF92A0A2B1B2BA5C0E1
:10098000843009F49FC0823021F4EE24FF248701D3
:1009900005C0E114F1040105110519F4E0E0F0E0EF
:1009A00096C0628173819FEF623879070CF05BC05B
:1009B00022E83FEF261B370B2A3131052CF020E0CF
:1009C00030E040E050E02AC0B801A701022E04C088
:1009D00076956795579547950A94D2F781E090E010
:1009E000A0E0B0E004C0880F991FAA1FBB1F2A9582
:1009F000D2F70197A109B1098E219F21A023B1232C
:100A00000097A105B10521F081E090E0A0E0B0E001
:100A10009A01AB01282B392B4A2B5B2BDA01C90138
:100A20008F779070A070B07080349105A105B105EA
:100A300039F427FF09C0205C3F4F4F4F5F4F04C080
:100A4000215C3F4F4F4F5F4FE0E0F0E02030A0E0EF
:100A50003A07A0E04A07A0E45A0710F0E1E0F0E00E
:100A600079018A0127C06038710564F5FB01E158FE
:100A7000FF4FD801C7018F779070A070B07080349D
:100A80009105A105B10539F4E7FE0DC080E490E0C1
:100A9000A0E0B0E004C08FE390E0A0E0B0E0E80E9A
:100AA000F91E0A1F1B1F17FF05C016950795F7941F
:100AB000E794319687E016950795F794E7948A9521
:100AC000D1F705C0EE24FF248701EFEFF0E06E2F91
:100AD000679566276795902F9F77D794DD24D794E5
:100AE0008E2F8695492F462B582F5D29B701CA01B5
:100AF0001F910F91FF90EF90DF900895FC01DB01B3
:100B0000408151812281622F6F7770E0221F22275E
:100B1000221F9381892F880F822B282F30E0991F65
:100B20009927991F11969C93119721153105A9F5C5
:100B3000411551056105710511F482E037C082E865
:100B40009FEF13969C938E9312979A01AB0167E0E7
:100B5000220F331F441F551F6A95D1F783E08C93F2
:100B60000DC0220F331F441F551F12968D919C916B
:100B70001397019713969C938E931297203080E0E1
:100B8000380780E0480780E4580758F314962D93FF
:100B90003D934D935C93179708952F3F310579F45A
:100BA000411551056105710519F484E08C93089590
:100BB00064FF03C081E08C9312C01C9210C02F57B9
:100BC000304013963C932E93129783E08C9387E0EA
:100BD000440F551F661F771F8A95D1F770641496CE
:100BE0004D935D936D937C93179708951F93DC014C
:100BF000FB019C91923008F447C08081823008F458
:100C000043C0943051F411961C91843099F5818140
:100C1000682F70E0611B71093FC0843021F0923071
:100C200031F48230B9F18181882389F12DC0119688
:100C30001C9111978230F1F081811817D9F4129626
:100C40002D913C911397828193818217930794F0A1
:100C500028173907BCF014968D919D910D90BC9189
:100C6000A02D2481358146815781281739074A07ED
:100C70005B0718F4112341F00AC082179307A407F9
:100C8000B50740F4112319F061E070E005C06FEF83
:100C90007FEF02C060E070E0CB011F910895DF9309
:100CA000CF93CDB7DEB780917400882339F0A1E3EC
:100CB000B0E0E1E3F0E080818B7F8C938091750060
:100CC000882339F0A1E3B0E0E1E3F0E08081877FA1
:100CD0008C9380917600882339F0A7E3B0E0E7E3B6
:100CE000F0E080818B7F8C93CF91DF910895DF932B
:100CF000CF9300D000D000D0CDB7DEB7AFE5B0E0E5
:100D0000EFE5F0E0808180688C9380917400882307
:100D100009F462C0ABE5B0E0EBE5F0E0808180640F
:100D20008C9380917700282F30E03E832D838D8136
:100D30009E818130910599F12D813E8122303105CE
:100D40002CF48D819E81009761F046C02D813E81FB
:100D50002230310599F18D819E818330910581F09A
:100D60003BC0A5E5B0E0E5E5F0E080818E7F8C93A7
:100D7000A5E5B0E0E5E5F0E080818D7F8C932CC0A7
:100D8000A5E5B0E0E5E5F0E0808181608C93A5E524
:100D9000B0E0E5E5F0E080818D7F8C931DC0A5E596
:100DA000B0E0E5E5F0E080818E7F8C93A5E5B0E0D2
:100DB000E5E5F0E0808182608C930EC0A5E5B0E0AF
:100DC000E5E5F0E0808181608C93A5E5B0E0E5E5A4
:100DD000F0E0808182608C9380917500882309F413
:100DE00062C0ABE5B0E0EBE5F0E0808180688C9319
:100DF00080917800282F30E03C832B838B819C816D
:100E00008130910599F12B813C81223031052CF400
:100E10008B819C81009761F046C02B813C81223000
:100E2000310599F18B819C818330910581F03BC024
:100E3000A5E5B0E0E5E5F0E080818B7F8C93A5E54A
:100E4000B0E0E5E5F0E08081877F8C932CC0A5E5DC
:100E5000B0E0E5E5F0E0808184608C93A5E5B0E04A
:100E6000E5E5F0E08081877F8C931DC0A5E5B0E0CB
:100E7000E5E5F0E080818B7F8C93A5E5B0E0E5E5CA
:100E8000F0E0808188608C930EC0A5E5B0E0E5E5D8
:100E9000F0E0808184608C93A5E5B0E0E5E5F0E0CA
:100EA000808188608C9380917600882339F1ABE54E
:100EB000B0E0EBE5F0E0808180628C938091790076
:100EC000282F30E03A83298389819A8181309105E6
:100ED00031F029813A812230310549F00FC0A4E573
:100EE000B0E0E4E5F0E080818F7B8C9307C0A4E55F
:100EF000B0E0E4E5F0E0808180648C9326960FB644
:100F0000F894DEBF0FBECDBFCF91DF910895DF9380
:100F1000CF9300D000D000D0CDB7DEB79A838983BD
:100F20007C836B835E834D8389819A819093850056
:100F3000809384008B819C819093870080938600AE
:100F40008D819E81909389008093880026960FB6AC
:100F5000F894DEBF0FBECDBFCF91DF910895DF9330
:100F6000CF9300D0CDB7DEB79A83898389819A81E8
:100F700090938500809384000F900F90CF91DF9124
:100F80000895DF93CF9300D0CDB7DEB79A838983DE
:100F900089819A8190938700809386000F900F90AB
:100FA000CF91DF9108951F920F920FB60F921124E7
:100FB0002F933F934F935F936F937F938F939F9361
:100FC000AF93BF93EF93FF93DF93CF93CDB7DEB78C
:100FD0008091840090918500009729F0E091840031
:100FE000F09185000995CF91DF91FF91EF91BF912D
:100FF000AF919F918F917F916F915F914F913F91B1
:101000002F910F900FBE0F901F9018951F920F9267
:101010000FB60F9211242F933F934F935F936F93CB
:101020007F938F939F93AF93BF93EF93FF93DF9340
:10103000CF93CDB7DEB7809186009091870000975F
:1010400029F0E0918600F09187000995CF91DF911A
:10105000FF91EF91BF91AF919F918F917F916F9190
:101060005F914F913F912F910F900FBE0F901F9066
:1010700018951F920F920FB60F9211242F933F9342
:101080004F935F936F937F938F939F93AF93BF9390
:10109000EF93FF93DF93CF93CDB7DEB780918800B6
:1010A00090918900009729F0E0918800F0918900E3
:1010B0000995CF91DF91FF91EF91BF91AF919F91F2
:1010C0008F917F916F915F914F913F912F910F90F1
:1010D0000FBE0F901F901895DF93CF9300D00F9203
:1010E000CDB7DEB789838981282F30E03B832A83FF
:1010F0008A819B818130910589F02A813B81223050
:101100003105A1F08A819B810097B9F4ABE5B0E08D
:10111000EBE5F0E080818F7B8C930FC0ABE5B0E016
:10112000EBE5F0E080818F778C9307C0ABE5B0E012
:10113000EBE5F0E080818F7D8C930F900F900F9006
:10114000CF91DF910895DF93CF9300D00F92CDB769
:10115000DEB789838981282F30E03B832A838A8107
:101160009B818130910589F02A813B8122303105B4
:10117000A1F08A819B810097B9F4ABE5B0E0EBE583
:10118000F0E080818F7B8C930FC0ABE5B0E0EBE5A6
:10119000F0E0808180688C9307C0ABE5B0E0EBE5C0
:1011A000F0E0808180628C930F900F900F90CF9130
:1011B000DF910895DF93CF9300D00F92CDB7DEB7C4
:1011C00089838981282F30E03B832A838A819B8110
:1011D000009769F02A813B812130310579F4AFE530
:1011E000B0E0EFE5F0E0808180688C9307C0AFE568
:1011F000B0E0EFE5F0E080818F778C930F900F9057
:101200000F90CF91DF9108950F931F93DF93CF93AA
:10121000CDB7DEB7CC54D0400FB6F894DEBF0FBECA
:10122000CDBFFE01E75BFF4F80E090E0ACE0B2E4B1
:1012300080839183A283B3838E010B5B1F4FFE01DA
:10124000E75BFF4F608171818281938120E030E014
:101250004AEF54E40E941F02DC01CB01F8018083B5
:101260009183A283B383FE01EB5BFF4F60817181A9
:101270008281938120E030E040E85FE30E94250412
:10128000882344F4FE01ED5BFF4F81E090E0918301
:10129000808364C0FE01EB5BFF4F608171818281BE
:1012A000938120E03FEF4FE757E40E94C5031816F3
:1012B0000CF043C0FE01E75BFF4F608171818281CA
:1012C000938120E030E040E251E40E941F02DC0103
:1012D000CB018E010D5B1F4FBC01CD010E94490067
:1012E000DC01CB01F801918380831FC0FE01EF5B1D
:1012F000FF4F88EC90E091838083FE01EF5BFF4F0E
:10130000808191810197F1F7FE01EF5BFF4F91839F
:101310008083DE01AD5BBF4FFE01ED5BFF4F80813F
:101320009181019711969C938E93FE01ED5BFF4F87
:10133000808191810097D1F624C08E010D5B1F4FF3
:10134000FE01EB5BFF4F60817181828193810E947E
:101350004900DC01CB01F80191838083FE01ED5B44
:10136000FF4F80819181FE01FF9691838083FE0172
:10137000FF96808191810197F1F7FE01FF9691839D
:10138000808388E30E94C70B80E090E0A0E2B2E493
:101390008BAF9CAFADAFBEAF6BAD7CAD8DAD9EAD39
:1013A0002BEA3AEA4AE250E40E941F02DC01CB0138
:1013B0008FAB98AFA9AFBAAF6FA978AD89AD9AAD31
:1013C00020E030E040E85FE30E94250488231CF41D
:1013D00081E08EAB91C06FA978AD89AD9AAD20E068
:1013E00030E04FE753E40E94C50318160CF07BC0B1
:1013F0006BAD7CAD8DAD9EAD20E030E04AE754E4AE
:101400000E941903DC01CB018AAB9BABACABBDAB3B
:101410006AA97BA98CA99DA920E030E04AEF54E499
:101420000E941F02DC01CB018EA79FA7A8ABB9AB1E
:101430006EA57FA588A999A920E030E040E85FE388
:101440000E94250488232CF481E090E09DA78CA7BE
:101450003FC06EA57FA588A999A920E03FEF4FE77F
:1014600057E40E94C50318164CF56AA97BA98CA9FC
:101470009DA920E030E040E251E40E941F02DC011F
:10148000CB01BC01CD010E944900DC01CB019DA72D
:101490008CA70FC088EC90E09BA78AA78AA59BA584
:1014A0000197F1F79BA78AA78CA59DA501979DA7FA
:1014B0008CA78CA59DA5009769F724C06EA57FA574
:1014C00088A999A90E944900DC01CB019DA78CA79E
:1014D0008CA59DA599A788A788A599A50197F1F73F
:1014E00099A788A70FC06FA978AD89AD9AAD0E9462
:1014F0004900DC01CB018EAB8EA98FA38FA18A9509
:10150000F1F78FA38FE00E94C70B80E090E0A0E28C
:10151000B2E48BA39CA3ADA3BEA36BA17CA18DA1C0
:101520009EA12BEA3AEA4AE250E40E941F02DC0143
:10153000CB018F8F98A3A9A3BAA36F8D78A189A19E
:101540009AA120E030E040E85FE30E942504882370
:101550001CF481E08E8F91C06F8D78A189A19AA132
:1015600020E030E04FE753E40E94C50318160CF06A
:101570007BC06BA17CA18DA19EA120E030E04AE759
:1015800054E40E941903DC01CB018A8F9B8FAC8F3E
:10159000BD8F6A8D7B8D8C8D9D8D20E030E04AEF74
:1015A00054E40E941F02DC01CB018E8B9F8BA88F1D
:1015B000B98F6E897F89888D998D20E030E040E871
:1015C0005FE30E94250488232CF481E090E09D8B4A
:1015D0008C8B3FC06E897F89888D998D20E03FEF8D
:1015E0004FE757E40E94C50318164CF56A8D7B8DB2
:1015F0008C8D9D8D20E030E040E251E40E941F027E
:10160000DC01CB01BC01CD010E944900DC01CB0112
:101610009D8B8C8B0FC088EC90E09B8B8A8B8A898A
:101620009B890197F1F79B8B8A8B8C899D89019708
:101630009D8B8C8B8C899D89009769F724C06E895E
:101640007F89888D998D0E944900DC01CB019D8B9B
:101650008C8B8C899D89998B888B88899989019736
:10166000F1F7998B888B0FC06F8D78A189A19AA112
:101670000E944900DC01CB018E8F8E8D8F878F8574
:101680008A95F1F78F8781E00E94C70B80E090E098
:10169000A0E0B0E48B879C87AD87BE876B857C8597
:1016A0008D859E8520E030E04AEF54E40E941F02C1
:1016B000DC01CB018F839887A987BA876F817885F2
:1016C00089859A8520E030E040E85FE30E942504A8
:1016D00088232CF481E090E09E838D833FC06F814E
:1016E000788589859A8520E03FEF4FE757E40E948F
:1016F000C50318164CF56B857C858D859E8520E08D
:1017000030E040E251E40E941F02DC01CB01BC0149
:10171000CD010E944900DC01CB019E838D830FC067
:1017200088EC90E09C838B838B819C810197F1F7FF
:101730009C838B838D819E8101979E838D838D8178
:101740009E81009769F714C06F81788589859A8595
:101750000E944900DC01CB019E838D838D819E8197
:101760009A83898389819A810197F1F79A83898382
:1017700086E00E94C70BC45BDF4F0FB6F894DEBF54
:101780000FBECDBFCF91DF911F910F910895DF93D1
:10179000CF93CDB7DEB769970FB6F894DEBF0FBE13
:1017A000CDBF898F82E060E041E00E942C1182E091
:1017B00060E040E00E94531282E061E041E00E945C
:1017C0002C1182E061E040E00E94531281E06FEF53
:1017D0000E94131481E0698D0E94AD1482E062E0E2
:1017E00041E00E942C1182E062E041E00E9453122D
:1017F00080E090E0A0E8BFE38D8B9E8BAF8BB88F2D
:101800006D897E898F89988D2BEA3AEA4AE250E405
:101810000E941F02DC01CB01898B9A8BAB8BBC8BA6
:1018200069897A898B899C8920E030E040E85FE310
:101830000E94250488231CF481E0888B91C069896B
:101840007A898B899C8920E030E04FE753E40E943D
:10185000C50318160CF07BC06D897E898F89988D21
:1018600020E030E04AE754E40E941903DC01CB0198
:101870008C879D87AE87BF876C857D858E859F858C
:1018800020E030E04AEF54E40E941F02DC01CB016B
:1018900088879987AA87BB87688579858A859B858C
:1018A00020E030E040E85FE30E94250488232CF428
:1018B00081E090E09F838E833FC0688579858A852B
:1018C0009B8520E03FEF4FE757E40E94C5031816C1
:1018D0004CF56C857D858E859F8520E030E040E26B
:1018E00051E40E941F02DC01CB01BC01CD010E942A
:1018F0004900DC01CB019F838E830FC088EC90E010
:101900009D838C838C819D810197F1F79D838C83CE
:101910008E819F8101979F838E838E819F81009707
:1019200069F724C0688579858A859B850E9449006E
:10193000DC01CB019F838E838E819F819B838A8371
:101940008A819B810197F1F79B838A830FC0698904
:101950007A898B899C890E944900DC01CB01888BA4
:101960008889898389818A95F1F7898382E062E099
:1019700040E00E94531269960FB6F894DEBF0FBE86
:10198000CDBFCF91DF910895DF93CF93CDB7DEB771
:1019900069970FB6F894DEBF0FBECDBF898F82E086
:1019A00060E041E00E942C1182E060E041E00E9492
:1019B000531282E061E041E00E942C1182E061E07C
:1019C00040E00E94531281E06FEF0E94131481E007
:1019D000698D0E94AD1482E062E041E00E942C110A
:1019E00082E062E041E00E94531280E090E0A0E8D3
:1019F000BFE38D8B9E8BAF8BB88F6D897E898F896E
:101A0000988D2BEA3AEA4AE250E40E941F02DC0178
:101A1000CB01898B9A8BAB8BBC8B69897A898B893B
:101A20009C8920E030E040E85FE30E9425048823A1
:101A30001CF481E0888B91C069897A898B899C89A3
:101A400020E030E04FE753E40E94C50318160CF085
:101A50007BC06D897E898F89988D20E030E04AE7D0
:101A600054E40E941903DC01CB018C879D87AE876B
:101A7000BF876C857D858E859F8520E030E04AEFAD
:101A800054E40E941F02DC01CB0188879987AA8752
:101A9000BB87688579858A859B8520E030E040E8B2
:101AA0005FE30E94250488232CF481E090E09F836B
:101AB0008E833FC0688579858A859B8520E03FEFCE
:101AC0004FE757E40E94C50318164CF56C857D85D9
:101AD0008E859F8520E030E040E251E40E941F02A5
:101AE000DC01CB01BC01CD010E944900DC01CB012E
:101AF0009F838E830FC088EC90E09D838C838C81C4
:101B00009D810197F1F79D838C838E819F81019741
:101B10009F838E838E819F81009769F724C068859B
:101B200079858A859B850E944900DC01CB019F83D2
:101B30008E838E819F819B838A838A819B8101977B
:101B4000F1F79B838A830FC069897A898B899C8985
:101B50000E944900DC01CB01888B888989838981B7
:101B60008A95F1F7898382E062E040E00E94531297
:101B700069960FB6F894DEBF0FBECDBFCF91DF914F
:101B80000895DF93CF93CDB7DEB762970FB6F89481
:101B9000DEBF0FBECDBF9A8B898B188A89899A893F
:101BA0000E94BA1A8F8780C08889282F30E08989DF
:101BB0009A89FC01E20FF31F80810E94C40C88897E
:101BC0008F5F888B80E090E0A0E0B0E48B879C87FB
:101BD000AD87BE876B857C858D859E8520E030E056
:101BE0004AEF54E40E941F02DC01CB018F839887E7
:101BF000A987BA876F81788589859A8520E030E04A
:101C000040E85FE30E94250488232CF481E090E003
:101C10009E838D833FC06F81788589859A8520E07A
:101C20003FEF4FE757E40E94C50318164CF56B854C
:101C30007C858D859E8520E030E040E251E40E9465
:101C40001F02DC01CB01BC01CD010E944900DC0177
:101C5000CB019E838D830FC088EC90E09C838B83A7
:101C60008B819C810197F1F79C838B838D819E8171
:101C700001979E838D838D819E81009769F714C0A3
:101C80006F81788589859A850E944900DC01CB01A6
:101C90009E838D838D819E819A83898389819A8198
:101CA0000197F1F79A83898398898F85981708F4AB
:101CB0007BCF62960FB6F894DEBF0FBECDBFCF913B
:101CC000DF910895DF93CF9300D000D0CDB7DEB77A
:101CD00089836A838981282F30E03C832B838B8121
:101CE0009C81009731F02B813C812130310531F00E
:101CF00009C08A8180580E94C70B04C08A81805421
:101D00000E94C70B0F900F900F900F90CF91DF9113
:101D10000895DF93CF93CDB7DEB72E970FB6F89423
:101D2000DEBF0FBECDBF81E00E94C70B80E090E018
:101D3000A0E0B0E48B879C87AD87BE876B857C85F0
:101D40008D859E8520E030E04AEF54E40E941F021A
:101D5000DC01CB018F839887A987BA876F8178854B
:101D600089859A8520E030E040E85FE30E94250401
:101D700088232CF481E090E09E838D833FC06F81A7
:101D8000788589859A8520E03FEF4FE757E40E94E8
:101D9000C50318164CF56B857C858D859E8520E0E6
:101DA00030E040E251E40E941F02DC01CB01BC01A3
:101DB000CD010E944900DC01CB019E838D830FC0C1
:101DC00088EC90E09C838B838B819C810197F1F759
:101DD0009C838B838D819E8101979E838D838D81D2
:101DE0009E81009769F714C06F81788589859A85EF
:101DF0000E944900DC01CB019E838D838D819E81F1
:101E00009A83898389819A810197F1F79A838983DB
:101E10002E960FB6F894DEBF0FBECDBFCF91DF91E7
:101E20000895DF93CF9300D000D0CDB7DEB78A837B
:101E30007C836B838A810E94C70B19820EC08981C3
:101E4000282F30E08B819C81FC01E20FF31F808101
:101E50000E94C40C89818F5F89838981883078F3DF
:101E60000F900F900F900F90CF91DF910895DF9317
:101E7000CF9300D00F92CDB7DEB789838981282F09
:101E800030E03B832A838A819B818831910531F040
:101E90002A813B812C31310529F007C088E10E945D
:101EA000C70B03C08CE10E94C70B0F900F900F90DF
:101EB000CF91DF910895DF93CF93CDB7DEB7299708
:101EC0000FB6F894DEBF0FBECDBF98878F831E82FA
:101ED0001C821B828F819885009721F480E30E94E9
:101EE000C40C0EC08F819885992354F48DE20E9412
:101EF000C40C8F819885909581959F4F98878F838B
:101F00008F8198859A83898329C089819A812AE063
:101F100030E0B9010E943A1A8D838B819C819C012B
:101F2000220F331FC901880F991F880F991F280F8F
:101F3000391F8D81992787FD9095820F931F9C8370
:101F40008B8389819A812AE030E0B9010E943A1A94
:101F5000CB019A8389838E818F5F8E8389819A8159
:101F6000009799F616C08B819C812AE030E0B90178
:101F70000E943A1A8D838D81805D0E94C40C8B81F2
:101F80009C812AE030E0B9010E943A1ACB019C837F
:101F90008B838E8189878985882311F081E08987E9
:101FA00089859E8191509E838823E9F629960FB6F4
:101FB000F894DEBF0FBECDBFCF91DF910895CF92D1
:101FC000EF92FF920F931F93DF93CF93CDB7DEB7BE
:101FD0000E9415110E94FF100E94040980E690E003
:101FE0000E94C10D0E94B4188FE19EE40E94331933
:101FF0000E944F060E94770688EE90E10E94AF078C
:10200000E3E5F0E180E048EE53E060E070E000E0FE
:1020100010E020E030E07F01CC24C3940E94C21580
:10202000EEE6F0E181E040ED57E060E070E000E0D6
:1020300010E020E030E07F01CC24C3940E94C21560
:10204000E9E8F0E182E048E853E160E070E000E0B8
:1020500010E020E030E07F01CC24C3940E94C21540
:10206000E4EAF0E183E04CE251E060E070E000E09F
:1020700010E020E030E07F01CC24C3940E94C21520
:10208000E9ECF0E184E048EE53E060E070E000E06D
:1020900010E020E030E07F01CC24C3940E94C21500
:1020A0000E941617FFCFDF93CF93CDB7DEB7809195
:1020B0008A00882349F480E060E041E00E945312E6
:1020C00081E080938A0007C010928A0080E060E07F
:1020D00040E00E945312CF91DF910895DF93CF9398
:1020E000CDB7DEB780918B00882349F480E061E0B2
:1020F00041E00E94531281E080938B0007C0109250
:102100008B0080E061E040E00E945312CF91DF91AC
:102110000895DF93CF93CDB7DEB780918C008823ED
:1021200049F480E062E041E00E94531281E0809334
:102130008C0007C080E062E040E00E9453121092E1
:102140008C00CF91DF910895DF93CF93CDB7DEB7A9
:1021500080918000909181008C599F4F90938100D5
:1021600080938000809180009091810027E08F3CD7
:10217000920731F487EE93E0909381008093800082
:1021800080918000909181000E942119CF91DF9170
:102190000895DF93CF93CDB7DEB780918D008F5F29
:1021A00080938D008CE10E94370F80918D008630E6
:1021B00061F40E94890E80E060E00E94620E80E679
:1021C00090E00E94C10D10928D00CF91DF91089593
:1021D000DF93CF93CDB7DEB780918200813031F4A9
:1021E00084E00E942B171092820006C084E00E94B7
:1021F000491781E080938200CF91DF910895DF93AA
:10220000CF93CDB7DEB7EBE3F0E088EF8083E8E370
:10221000F0E01082E5E3F0E084E08083E2E3F0E0C8
:1022200081E08083CF91DF910895DF93CF93CDB785
:10223000DEB7EAE3F0E08FE08083E7E3F0E08FEFE2
:102240008083E4E3F0E08FEF8083E1E3F0E08BEF65
:102250008083CF91DF910895DF93CF93CDB7DEB721
:102260002E970FB6F894DEBF0FBECDBF8A836B8367
:102270004C8381E089838A81843008F009C18B8195
:10228000883008F005C18C81823008F001C18A8154
:10229000282F30E03E872D878D859E8581309105E2
:1022A00009F44FC02D853E85223031052CF48D85F3
:1022B0009E85009771F0EDC02D853E852230310559
:1022C00009F477C08D859E858330910509F4A9C0F6
:1022D000E0C08C81282F30E03C872B878B859C8544
:1022E0000097D1F02B853C852130310509F0D1C014
:1022F000AAE3B0E0EAE3F0E08081482F8B81282F49
:1023000030E081E090E0022E02C0880F991F0A940D
:10231000E2F7842B8C93BDC0AAE3B0E0EAE3F0E0DF
:102320008081482F8B81282F30E081E090E0022EC1
:1023300002C0880F991F0A94E2F7809584238C933A
:10234000A8C08C81282F30E03A87298789859A8513
:102350000097D1F029853A852130310509F099C0DF
:10236000A7E3B0E0E7E3F0E08081482F8B81282FDE
:1023700030E081E090E0022E02C0880F991F0A949D
:10238000E2F7842B8C9385C0A7E3B0E0E7E3F0E0AD
:102390008081482F8B81282F30E081E090E0022E51
:1023A00002C0880F991F0A94E2F7809584238C93CA
:1023B00070C08C81282F30E038872F838F819885DB
:1023C0000097D1F02F8138852130310509F061C0A7
:1023D000A4E3B0E0E4E3F0E08081482F8B81282F74
:1023E00030E081E090E0022E02C0880F991F0A942D
:1023F000E2F7842B8C934DC0A4E3B0E0E4E3F0E07B
:102400008081482F8B81282F30E081E090E0022EE0
:1024100002C0880F991F0A94E2F7809584238C9359
:1024200038C08C81282F30E03E832D838D819E81A2
:102430000097C9F02D813E812130310551F5A1E38E
:10244000B0E0E1E3F0E08081482F8B81282F30E07D
:1024500081E090E0022E02C0880F991F0A94E2F7F3
:10246000842B8C9316C0A1E3B0E0E1E3F0E080811F
:10247000482F8B81282F30E081E090E0022E02C0AF
:10248000880F991F0A94E2F7809584238C9301C0EA
:10249000198289812E960FB6F894DEBF0FBECDBF8C
:1024A000CF91DF910895DF93CF93CDB7DEB72E970D
:1024B0000FB6F894DEBF0FBECDBF8A836B834C830B
:1024C00081E089838A81843008F009C18B8188305A
:1024D00008F005C18C81823008F001C18A81282F63
:1024E00030E03E872D878D859E858130910509F4EA
:1024F0004FC02D853E85223031052CF48D859E857B
:10250000009771F0EDC02D853E852230310509F42C
:1025100077C08D859E858330910509F4A9C0E0C000
:102520008C81282F30E03C872B878B859C850097FA
:10253000D1F02B853C852130310509F0D1C0ABE3CA
:10254000B0E0EBE3F0E08081482F8B81282F30E072
:1025500081E090E0022E02C0880F991F0A94E2F7F2
:10256000842B8C93BDC0ABE3B0E0EBE3F0E0808163
:10257000482F8B81282F30E081E090E0022E02C0AE
:10258000880F991F0A94E2F7809584238C93A8C042
:102590008C81282F30E03A87298789859A85009792
:1025A000D1F029853A852130310509F099C0A8E399
:1025B000B0E0E8E3F0E08081482F8B81282F30E005
:1025C00081E090E0022E02C0880F991F0A94E2F782
:1025D000842B8C9385C0A8E3B0E0E8E3F0E0808131
:1025E000482F8B81282F30E081E090E0022E02C03E
:1025F000880F991F0A94E2F7809584238C9370C00A
:102600008C81282F30E038872F838F819885009721
:10261000D1F02F8138852130310509F061C0A5E363
:10262000B0E0E5E3F0E08081482F8B81282F30E097
:1026300081E090E0022E02C0880F991F0A94E2F711
:10264000842B8C934DC0A5E3B0E0E5E3F0E08081FE
:10265000482F8B81282F30E081E090E0022E02C0CD
:10266000880F991F0A94E2F7809584238C9338C0D1
:102670008C81282F30E03E832D838D819E810097B1
:10268000C9F02D813E812130310551F5A2E3B0E042
:10269000E2E3F0E08081482F8B81282F30E081E059
:1026A00090E0022E02C0880F991F0A94E2F7842B53
:1026B0008C9316C0A2E3B0E0E2E3F0E08081482F03
:1026C0008B81282F30E081E090E0022E02C0880F3D
:1026D000991F0A94E2F7809584238C9301C0198294
:1026E00089812E960FB6F894DEBF0FBECDBFCF9175
:1026F000DF910895DF93CF93CDB7DEB727970FB65D
:10270000F894DEBF0FBECDBF8A836B835D834C839D
:1027100081E089838A81843008F07AC08B81883097
:1027200008F076C08C819D81009709F471C08A8180
:10273000282F30E03F832E834E815F814130510549
:1027400059F18E819F818230910534F42E813F8131
:102750002115310569F05DC04E815F814230510520
:1027600079F18E819F818330910509F43DC051C07C
:10277000E9E3F0E08081282F30E08B81882F90E022
:10278000A90102C0559547958A95E2F7CA01817063
:10279000EC81FD8180833DC0E6E3F0E08081282F5D
:1027A00030E08B81882F90E0A90102C055954795B4
:1027B0008A95E2F7CA018170EC81FD81808329C08E
:1027C000E3E3F0E08081282F30E08B81882F90E0D8
:1027D000A90102C0559547958A95E2F7CA01817013
:1027E000EC81FD81808315C0E0E3F0E08081282F3B
:1027F00030E08B81882F90E0A90102C05595479564
:102800008A95E2F7CA018170EC81FD81808301C065
:102810001982898127960FB6F894DEBF0FBECDBF0F
:10282000CF91DF910895DF93CF93CDB7DEB72D978A
:102830000FB6F894DEBF0FBECDBF8A836B8381E0F5
:1028400089838A81843008F07DC08A81282F30E016
:102850003D872C878C859D858130910571F12C8574
:102860003D85223031052CF48C859D85009769F0DB
:102870006AC02C853D8522303105B1F18C859D855E
:102880008330910509F447C05EC08B81282F30E06A
:102890003B872A878A859B85009759F02A853B8547
:1028A0002F3F310509F04FC0EAE3F0E08FEF80835E
:1028B0004AC0EAE3F0E0108246C08B81282F30E066
:1028C0003987288788859985009751F0288539852B
:1028D0002F3F3105C1F5E7E3F0E08FEF808333C090
:1028E000E7E3F0E010822FC08B81282F30E03F8398
:1028F0002E838E819F81009751F02E813F812F3F43
:10290000310509F5E4E3F0E08FEF80831CC0E4E3D8
:10291000F0E0108218C08B81282F30E03D832C839B
:102920008C819D81009751F02C813D812F3F310595
:1029300051F4E1E3F0E08FEF808305C0E1E3F0E0E4
:10294000108201C0198289812D960FB6F894DEBFDE
:102950000FBECDBFCF91DF910895DF93CF9300D00D
:1029600000D00F92CDB7DEB78A836B8381E0898375
:102970008A81843098F58A81282F30E03D832C832A
:102980008C819D8181309105D1F02C813D81223057
:1029900031052CF48C819D81009761F020C02C8141
:1029A0003D812230310581F08C819D8183309105FC
:1029B00081F015C0EBE3F0E08B81808310C0E8E389
:1029C000F0E08B8180830BC0E5E3F0E08B818083B6
:1029D00006C0E2E3F0E08B81808301C01982898127
:1029E0000F900F900F900F900F90CF91DF9108955F
:1029F000DF93CF9300D000D000D0CDB7DEB78A836D
:102A00007C836B8381E089838A81843008F03FC0B6
:102A10008B819C810097D9F18A81282F30E03E83F9
:102A20002D838D819E8181309105E1F02D813E8144
:102A3000223031052CF48D819E81009761F028C0F1
:102A40002D813E8122303105A1F08D819E81833020
:102A50009105B1F01DC0E9E3F0E08081EB81FC81DC
:102A6000808316C0E6E3F0E08081EB81FC81808307
:102A70000FC0E3E3F0E08081EB81FC81808308C03C
:102A8000E0E3F0E08081EB81FC81808301C019826A
:102A9000898126960FB6F894DEBF0FBECDBFCF91C9
:102AA000DF910895DF93CF9300D000D0CDB7DEB78C
:102AB0008A838A81282F30E03C832B838B819C8101
:102AC0008130910531F12B813C81223031052CF48C
:102AD0008B819C81009761F04EC02B813C8122301C
:102AE000310541F18B819C8183309105A1F143C077
:102AF000E9E3F0E08081898389818F3F29F480E0D8
:102B000060E00E94AD1437C080E06FEF0E94AD140A
:102B100032C0E6E3F0E08081898389818F3F29F428
:102B200081E060E00E94AD1426C081E06FEF0E945A
:102B3000AD1421C0E3E3F0E08081898389818F3F78
:102B400029F482E060E00E94AD1415C082E06FEFCE
:102B50000E94AD1410C0E0E3F0E080818983898198
:102B60008F3F29F483E060E00E94AD1404C083E04D
:102B70006FEF0E94AD140F900F900F900F90CF91B8
:102B8000DF910895CF92EF92FF920F931F93DF93FF
:102B9000CF93CDB7DEB72D970FB6F894DEBF0FBE3B
:102BA000CDBF8A834B835C836D837E830F831887BD
:102BB00029873A87FC86EB86CD8681E089838A81E6
:102BC000863008F05FC08A81482F50E0CA01880F24
:102BD000991F9C01220F331F220F331F820F931F57
:102BE000840F951FFC01E256FF4F8B819C81AD81C4
:102BF000BE8180839183A283B3838A81482F50E072
:102C0000CA01880F991F9C01220F331F220F331F07
:102C1000820F931F840F951FFC01EE55FF4F8F818C
:102C20009885A985BA8580839183A283B3838A819D
:102C3000482F50E0CA01880F991F9C01220F331FB3
:102C4000220F331F820F931F840F951FFC01EA553B
:102C5000FF4F8B859C85918380838A81482F50E02C
:102C6000CA01880F991F9C01220F331F220F331FA7
:102C7000820F931F840F951FFC01E855FF4F8D8530
:102C8000808301C0198289812D960FB6F894DEBF2A
:102C90000FBECDBFCF91DF911F910F91FF90EF90AD
:102CA000CF900895EF92FF920F931F93DF93CF93EE
:102CB0000F92CDB7DEB71982ADC08981482F50E0A1
:102CC000CA01880F991F9C01220F331F220F331F47
:102CD000820F931F840F951FFC01EE55FF4F8081DB
:102CE0009181A281B3810097A105B10509F05FC070
:102CF0008981482F50E0CA01880F991F9C01220F3B
:102D0000331F220F331F820F931F840F951FFC0167
:102D1000E855FF4F8081813009F079C08981082F03
:102D200010E08981482F50E0CA01880F991F9C014B
:102D3000220F331F220F331F820F931F840F951F03
:102D4000FC01E256FF4F80819181A281B381AC01E9
:102D5000BD014150504060407040C801880F991F2C
:102D60009C01220F331F220F331F820F931F800FEE
:102D7000911FFC01EE55FF4F4083518362837383A3
:102D80008981482F50E0CA01880F991F9C01220FAA
:102D9000331F220F331F820F931F840F951FFC01D7
:102DA000EA55FF4F0190F081E02D099530C08981EF
:102DB000482F50E0CA01880F991F9C01220F331F32
:102DC000220F331F820F931F840F951FFC01EE55B6
:102DD000FF4F80819181A281B3817C018D01089494
:102DE000E108F10801091109CA01880F991F9C0126
:102DF000220F331F220F331F820F931F840F951F43
:102E0000FC01EE55FF4FE082F1820283138389813A
:102E10008F5F89838981863008F44FCF0F90CF91DF
:102E2000DF911F910F91FF90EF900895DF93CF9363
:102E3000CDB7DEB781E00E94DA080E94671722E56D
:102E400036E181E0B9010E94BC1780E00E94911731
:102E5000CF91DF910895DF93CF930F92CDB7DEB777
:102E600089838981482F50E0CA01880F991F9C01EE
:102E7000220F331F220F331F820F931F840F951FC2
:102E8000FC01E855FF4F82E080830F90CF91DF91E6
:102E90000895DF93CF930F92CDB7DEB789838981F1
:102EA000482F50E0CA01880F991F9C01220F331F41
:102EB000220F331F820F931F840F951FFC01E855CB
:102EC000FF4F81E080830F90CF91DF910895DF93D2
:102ED000CF93CDB7DEB7A3E5B0E0E3E5F0E08081C6
:102EE000877F8C93A3E5B0E0E3E5F0E080818F7B02
:102EF0008C93A3E5B0E0E3E5F0E080818E7F8C93D6
:102F0000A3E5B0E0E3E5F0E0808182608C93A3E587
:102F1000B0E0E3E5F0E080818B7F8C93CF91DF918F
:102F20000895DF93CF9300D00F92CDB7DEB789839A
:102F30008981282F30E03B832A838A819B810097F7
:102F400031F02A813B812130310549F00FC0A9E5DC
:102F5000B0E0E9E5F0E0808181608C9307C0A9E5ED
:102F6000B0E0E9E5F0E0808182608C930F900F90F3
:102F70000F90CF91DF910895DF93CF9300D000D0D1
:102F80000F92CDB7DEB789837B836A838A819B8169
:102F9000009711F1809192008823F1F481E08093F1
:102FA00092008981282F30E03D832C838C819D8184
:102FB000009761F02C813D812130310569F48A81CF
:102FC0009B8190938F0080938E0006C08A819B81A5
:102FD00090939100809390000F900F900F900F901E
:102FE0000F90CF91DF9108951F920F920FB60F921D
:102FF00011242F933F934F935F936F937F938F93FE
:103000009F93AF93BF93EF93FF93DF93CF93CDB78E
:10301000DEB78091930090919400A0919500B091BB
:1030200096000196A11DB11D80939300909394008A
:10303000A0939500B0939600809193009091940096
:10304000A0919500B091960084309105A105B1053D
:10305000C9F4E2E5F0E089E18083109293001092D8
:103060009400109295001092960080918E0090919D
:103070008F00009739F010929200E0918E00F0914D
:103080008F000995CF91DF91FF91EF91BF91AF91A3
:103090009F918F917F916F915F914F913F912F9170
:1030A0000F900FBE0F901F9018951F920F920FB6A2
:1030B0000F9211242F933F934F935F936F937F93BE
:1030C0008F939F93AF93BF93EF93FF93DF93CF9330
:1030D000CDB7DEB780918E0090918F00009739F0C8
:1030E00010929200E0919000F09191000995CF919B
:1030F000DF91FF91EF91BF91AF919F918F917F9160
:103100006F915F914F913F912F910F900FBE0F9054
:103110001F901895DF93CF93CDB7DEB7A3E5B0E04E
:10312000E3E5F0E080818E7F8C93A3E5B0E0E3E5FA
:10313000F0E080818D7F8C93A3E5B0E0E3E5F0E0E3
:1031400080818B7F8C93CF91DF910895DF93CF9314
:103150000F92CDB7DEB78983ECE5F0E089818083FB
:103160000F90CF91DF910895DF93CF93CDB7DEB766
:10317000AFE4B0E0EFE4F0E080818E7F8C93AFE4C9
:10318000B0E0EFE4F0E0808182608C93AEE4B0E0E8
:10319000EEE4F0E0808188608C93AEE4B0E0EEE491
:1031A000F0E0808180618C93AFE4B0E0EFE4F0E088
:1031B00080818F7B8C93AFE4B0E0EFE4F0E080811E
:1031C00080688C93AEE4B0E0EEE4F0E080818E7F26
:1031D0008C93AEE4B0E0EEE4F0E0808182608C930A
:1031E000AEE4B0E0EEE4F0E080818B7F8C93CF9191
:1031F000DF910895DF93CF93CDB7DEB7AEE4B0E0B3
:10320000EEE4F0E080818E7F8C93AEE4B0E0EEE4FB
:10321000F0E080818D7F8C93AEE4B0E0EEE4F0E0EE
:1032200080818B7F8C93CF91DF910895DF93CF9333
:10323000CDB7DEB7ECE4F0E080819181CF91DF91F2
:103240000895DF93CF9300D0CDB7DEB79A838983FB
:10325000EAE4F0E089819A81918380830F900F9056
:10326000CF91DF910895DF93CF9300D0CDB7DEB734
:103270009A838983E6E4F0E089819A81918380834F
:103280000F900F90CF91DF910895DF93CF93CDB73B
:10329000DEB7AEE4B0E0EEE4F0E0808180688C93CD
:1032A000AEE4B0E0EEE4F0E0808180648C93A9E5C8
:1032B000B0E0E9E5F0E0808180628C93CF91DF910E
:1032C00008951F920F920FB60F9211242F933F93E0
:1032D0008F939F93AF93BF93EF93FF93DF93CF931E
:1032E00000D0CDB7DEB7E6E4F0E0808191819A832B
:1032F0008983809197008823B1F4AEE4B0E0EEE4D6
:10330000F0E080818F7B8C9381E080939700209107
:1033100098003091990089819A81821B930B909338
:103320009B0080939A00809197008130A9F4AEE4CD
:10333000B0E0EEE4F0E0808180648C93109297001E
:10334000209198003091990089819A81821B930B7A
:1033500090939D0080939C0089819A81909399001D
:10336000809398000F900F90CF91DF91FF91EF9194
:10337000BF91AF919F918F913F912F910F900FBE71
:103380000F901F901895DF93CF9300D000D0CDB74A
:10339000DEB720919A0030919B0080919C00909123
:1033A0009D00820F931FCC01A0E0B0E089839A8337
:1033B000AB83BC8389819A81AB81BC81BC01CD0187
:1033C0000F900F900F900F90CF91DF910895DF93A2
:1033D000CF9300D000D00F92CDB7DEB70E94C319B3
:1033E000DC01CB018A839B83AC83BD8380919C00ED
:1033F00090919D00CC01A0E0B0E024E630E040E0F8
:1034000050E0BC01CD010E941B1ADC01CB012A81D6
:103410003B814C815D81BC01CD010E944D1ADA01D6
:10342000C901898389810F900F900F900F900F90A1
:10343000CF91DF910895629FD001739FF001829F29
:10344000E00DF11D649FE00DF11D929FF00D839F33
:10345000F00D749FF00D659FF00D9927729FB00DD0
:10346000E11DF91F639FB00DE11DF91FBD01CF01E3
:103470001124089597FB092E07260AD077FD04D062
:103480002ED006D000201AF4709561957F4F0895D4
:10349000F6F7909581959F4F0895A1E21A2EAA1BE9
:1034A000BB1BFD010DC0AA1FBB1FEE1FFF1FA217F4
:1034B000B307E407F50720F0A21BB30BE40BF50BF1
:1034C000661F771F881F991F1A9469F7609570957A
:1034D000809590959B01AC01BD01CF010895AA1B79
:1034E000BB1B51E107C0AA1FBB1FA617B70710F0EF
:1034F000A61BB70B881F991F5A95A9F78095909521
:10350000BC01CD0108952F923F924F925F926F922E
:103510007F928F929F92AF92BF92CF92DF92EF9263
:10352000FF920F931F93CF93DF93CDB7DEB7CA1BE4
:10353000DB0B0FB6F894DEBF0FBECDBF09942A880F
:10354000398848885F846E847D848C849B84AA84B7
:10355000B984C884DF80EE80FD800C811B81AA8144
:10356000B981CE0FD11D0FB6F894DEBF0FBECDBF0F
:10357000ED010895FC0101900020E9F780959095F8
:0A3580008E0F9F1F0895F894FFCFEF
:10358A00416264656C7261686D616E0000000000E2
:10359A000000000006000001000006000001000013
:0435AA00E703010032
:00000001FF
